{
    "abi": [
        {
            "inputs": [
                {
                    "internalType": "bytes32",
                    "name": "_oracleType",
                    "type": "bytes32"
                },
                {
                    "internalType": "address",
                    "name": "_systemAddress",
                    "type": "address"
                },
                {
                    "internalType": "address",
                    "name": "_committeeAddress",
                    "type": "address"
                },
                {
                    "internalType": "bytes32",
                    "name": "_symbol",
                    "type": "bytes32"
                },
                {
                    "internalType": "uint256",
                    "name": "_depegTolerance",
                    "type": "uint256"
                },
                {
                    "internalType": "uint8",
                    "name": "_minBlocksToSwitchStatus",
                    "type": "uint8"
                },
                {
                    "internalType": "uint8",
                    "name": "_decimals",
                    "type": "uint8"
                },
                {
                    "internalType": "bool",
                    "name": "_isOnchain",
                    "type": "bool"
                }
            ],
            "stateMutability": "nonpayable",
            "type": "constructor"
        },
        {
            "anonymous": false,
            "inputs": [
                {
                    "indexed": true,
                    "internalType": "address",
                    "name": "committeeAddress",
                    "type": "address"
                },
                {
                    "indexed": true,
                    "internalType": "address",
                    "name": "policyAddress",
                    "type": "address"
                },
                {
                    "indexed": true,
                    "internalType": "bytes32",
                    "name": "symbol",
                    "type": "bytes32"
                },
                {
                    "indexed": false,
                    "internalType": "bytes32",
                    "name": "oracleType",
                    "type": "bytes32"
                },
                {
                    "indexed": false,
                    "internalType": "uint256",
                    "name": "depegTolerance",
                    "type": "uint256"
                },
                {
                    "indexed": false,
                    "internalType": "uint8",
                    "name": "minBlocksToSwitchStatus",
                    "type": "uint8"
                },
                {
                    "indexed": false,
                    "internalType": "uint8",
                    "name": "decimals",
                    "type": "uint8"
                },
                {
                    "indexed": false,
                    "internalType": "bool",
                    "name": "onChain",
                    "type": "bool"
                },
                {
                    "indexed": false,
                    "internalType": "uint256",
                    "name": "stableValue",
                    "type": "uint256"
                }
            ],
            "name": "DataProviderCreated",
            "type": "event"
        },
        {
            "anonymous": false,
            "inputs": [
                {
                    "indexed": true,
                    "internalType": "address",
                    "name": "previousOwner",
                    "type": "address"
                },
                {
                    "indexed": true,
                    "internalType": "address",
                    "name": "newOwner",
                    "type": "address"
                }
            ],
            "name": "OwnershipTransferred",
            "type": "event"
        },
        {
            "anonymous": false,
            "inputs": [
                {
                    "indexed": true,
                    "internalType": "address",
                    "name": "committeeAddress",
                    "type": "address"
                },
                {
                    "indexed": true,
                    "internalType": "address",
                    "name": "policyAddress",
                    "type": "address"
                },
                {
                    "indexed": true,
                    "internalType": "bytes32",
                    "name": "symbol",
                    "type": "bytes32"
                },
                {
                    "indexed": false,
                    "internalType": "uint256",
                    "name": "l1BlockNum",
                    "type": "uint256"
                },
                {
                    "indexed": false,
                    "internalType": "uint256",
                    "name": "price",
                    "type": "uint256"
                },
                {
                    "indexed": false,
                    "internalType": "bool",
                    "name": "depegged",
                    "type": "bool"
                }
            ],
            "name": "PriceRecorded",
            "type": "event"
        },
        {
            "inputs": [],
            "name": "decimals",
            "outputs": [
                {
                    "internalType": "uint8",
                    "name": "",
                    "type": "uint8"
                }
            ],
            "stateMutability": "view",
            "type": "function"
        },
        {
            "inputs": [],
            "name": "depegTolerance",
            "outputs": [
                {
                    "internalType": "uint256",
                    "name": "",
                    "type": "uint256"
                }
            ],
            "stateMutability": "view",
            "type": "function"
        },
        {
            "inputs": [],
            "name": "depegged",
            "outputs": [
                {
                    "internalType": "bool",
                    "name": "",
                    "type": "bool"
                }
            ],
            "stateMutability": "view",
            "type": "function"
        },
        {
            "inputs": [],
            "name": "getLastObservedBlock",
            "outputs": [
                {
                    "internalType": "uint256",
                    "name": "",
                    "type": "uint256"
                }
            ],
            "stateMutability": "view",
            "type": "function"
        },
        {
            "inputs": [],
            "name": "getLastPrice",
            "outputs": [
                {
                    "internalType": "uint256",
                    "name": "",
                    "type": "uint256"
                }
            ],
            "stateMutability": "view",
            "type": "function"
        },
        {
            "inputs": [],
            "name": "getOracleCommittee",
            "outputs": [
                {
                    "internalType": "address",
                    "name": "",
                    "type": "address"
                }
            ],
            "stateMutability": "view",
            "type": "function"
        },
        {
            "inputs": [],
            "name": "getProviderMetadata",
            "outputs": [
                {
                    "components": [
                        {
                            "internalType": "bytes32",
                            "name": "symbol",
                            "type": "bytes32"
                        },
                        {
                            "internalType": "bytes32",
                            "name": "oracleType",
                            "type": "bytes32"
                        },
                        {
                            "internalType": "uint256",
                            "name": "lastBlockNum",
                            "type": "uint256"
                        },
                        {
                            "internalType": "uint256",
                            "name": "lastObservation",
                            "type": "uint256"
                        },
                        {
                            "internalType": "uint8",
                            "name": "switchStatusCounter",
                            "type": "uint8"
                        },
                        {
                            "internalType": "bool",
                            "name": "lastObservationDepegged",
                            "type": "bool"
                        }
                    ],
                    "internalType": "struct GenericDataProvider.OnlyTheMostRelevantMetadata",
                    "name": "",
                    "type": "tuple"
                }
            ],
            "stateMutability": "view",
            "type": "function"
        },
        {
            "inputs": [],
            "name": "getSymbol",
            "outputs": [
                {
                    "internalType": "bytes32",
                    "name": "",
                    "type": "bytes32"
                }
            ],
            "stateMutability": "view",
            "type": "function"
        },
        {
            "inputs": [],
            "name": "getSystemAddress",
            "outputs": [
                {
                    "internalType": "address",
                    "name": "",
                    "type": "address"
                }
            ],
            "stateMutability": "view",
            "type": "function"
        },
        {
            "inputs": [],
            "name": "getType",
            "outputs": [
                {
                    "internalType": "bytes32",
                    "name": "",
                    "type": "bytes32"
                }
            ],
            "stateMutability": "view",
            "type": "function"
        },
        {
            "inputs": [],
            "name": "isDepegged",
            "outputs": [
                {
                    "internalType": "bool",
                    "name": "",
                    "type": "bool"
                }
            ],
            "stateMutability": "view",
            "type": "function"
        },
        {
            "inputs": [],
            "name": "isGasMinimized",
            "outputs": [
                {
                    "internalType": "bool",
                    "name": "",
                    "type": "bool"
                }
            ],
            "stateMutability": "view",
            "type": "function"
        },
        {
            "inputs": [],
            "name": "isOnChain",
            "outputs": [
                {
                    "internalType": "bool",
                    "name": "",
                    "type": "bool"
                }
            ],
            "stateMutability": "view",
            "type": "function"
        },
        {
            "inputs": [],
            "name": "lastBlockNum",
            "outputs": [
                {
                    "internalType": "uint256",
                    "name": "",
                    "type": "uint256"
                }
            ],
            "stateMutability": "view",
            "type": "function"
        },
        {
            "inputs": [],
            "name": "lastObservation",
            "outputs": [
                {
                    "internalType": "uint256",
                    "name": "",
                    "type": "uint256"
                }
            ],
            "stateMutability": "view",
            "type": "function"
        },
        {
            "inputs": [],
            "name": "lastObservationDepegged",
            "outputs": [
                {
                    "internalType": "bool",
                    "name": "",
                    "type": "bool"
                }
            ],
            "stateMutability": "view",
            "type": "function"
        },
        {
            "inputs": [],
            "name": "minBlocksToSwitchStatus",
            "outputs": [
                {
                    "internalType": "uint8",
                    "name": "",
                    "type": "uint8"
                }
            ],
            "stateMutability": "view",
            "type": "function"
        },
        {
            "inputs": [],
            "name": "onChain",
            "outputs": [
                {
                    "internalType": "bool",
                    "name": "",
                    "type": "bool"
                }
            ],
            "stateMutability": "view",
            "type": "function"
        },
        {
            "inputs": [],
            "name": "oracleType",
            "outputs": [
                {
                    "internalType": "bytes32",
                    "name": "",
                    "type": "bytes32"
                }
            ],
            "stateMutability": "view",
            "type": "function"
        },
        {
            "inputs": [],
            "name": "owner",
            "outputs": [
                {
                    "internalType": "address",
                    "name": "",
                    "type": "address"
                }
            ],
            "stateMutability": "view",
            "type": "function"
        },
        {
            "inputs": [
                {
                    "internalType": "uint256",
                    "name": "_l1BlockNum",
                    "type": "uint256"
                },
                {
                    "internalType": "uint256",
                    "name": "_price",
                    "type": "uint256"
                }
            ],
            "name": "recordPrice",
            "outputs": [],
            "stateMutability": "nonpayable",
            "type": "function"
        },
        {
            "inputs": [],
            "name": "renounceOwnership",
            "outputs": [],
            "stateMutability": "nonpayable",
            "type": "function"
        },
        {
            "inputs": [
                {
                    "internalType": "address",
                    "name": "_oracleCommitteeAddr",
                    "type": "address"
                }
            ],
            "name": "setOracleCommittee",
            "outputs": [],
            "stateMutability": "nonpayable",
            "type": "function"
        },
        {
            "inputs": [
                {
                    "internalType": "uint256",
                    "name": "_l1BlockNum",
                    "type": "uint256"
                }
            ],
            "name": "shouldRecordPrice",
            "outputs": [
                {
                    "internalType": "bool",
                    "name": "",
                    "type": "bool"
                }
            ],
            "stateMutability": "view",
            "type": "function"
        },
        {
            "inputs": [],
            "name": "stableValue",
            "outputs": [
                {
                    "internalType": "uint256",
                    "name": "",
                    "type": "uint256"
                }
            ],
            "stateMutability": "view",
            "type": "function"
        },
        {
            "inputs": [],
            "name": "switchStatusCounter",
            "outputs": [
                {
                    "internalType": "uint8",
                    "name": "",
                    "type": "uint8"
                }
            ],
            "stateMutability": "view",
            "type": "function"
        },
        {
            "inputs": [],
            "name": "symbol",
            "outputs": [
                {
                    "internalType": "bytes32",
                    "name": "",
                    "type": "bytes32"
                }
            ],
            "stateMutability": "view",
            "type": "function"
        },
        {
            "inputs": [],
            "name": "systemAddress",
            "outputs": [
                {
                    "internalType": "address",
                    "name": "",
                    "type": "address"
                }
            ],
            "stateMutability": "view",
            "type": "function"
        },
        {
            "inputs": [
                {
                    "internalType": "address",
                    "name": "newOwner",
                    "type": "address"
                }
            ],
            "name": "transferOwnership",
            "outputs": [],
            "stateMutability": "nonpayable",
            "type": "function"
        }
    ],
    "bytecode": {
        "object": "0x60806040526004805460ff60c01b191690556008805460ff191690553480156200002857600080fd5b5060405162001915380380620019158339810160408190526200004b916200025c565b6200005633620001dd565b600788905560018590556004805460ff848116600160b81b02600163ff00000160a01b0319918716600160a01b0291909116600162ff000160a81b0319909216919091176001600160a01b038a1617179055620000b582600a62000406565b60055560038490556004805460ff60a81b1916600160a81b8315150217815560088054610100600160a81b0319166101006001600160a01b038a8116820292909217928390556040805163192eda8360e01b815290518a95929094049092169263192eda839280830192602092918290030181865afa1580156200013d573d6000803e3d6000fd5b505050506040513d601f19601f820116820180604052508101906200016391906200041e565b600554604080518c81526020810189905260ff8881168284015287166060820152851515608082015260a0810192909252516001600160a01b03928316928a16917fb0b4a28386383e1c9fdc3d0c65f8e5ef42578c391b261abd045aad76d047a8aa919081900360c00190a450505050505050506200043c565b600080546001600160a01b038381166001600160a01b0319831681178455604051919092169283917f8be0079c531659141344cd1fd0a4f28419497f9722a3daafe3b4186f6b6457e09190a35050565b80516001600160a01b03811681146200024557600080fd5b919050565b805160ff811681146200024557600080fd5b600080600080600080600080610100898b0312156200027a57600080fd5b885197506200028c60208a016200022d565b96506200029c60408a016200022d565b95506060890151945060808901519350620002ba60a08a016200024a565b9250620002ca60c08a016200024a565b915060e08901518015158114620002e057600080fd5b809150509295985092959890939650565b634e487b7160e01b600052601160045260246000fd5b600181815b80851115620003485781600019048211156200032c576200032c620002f1565b808516156200033a57918102915b93841c93908002906200030c565b509250929050565b600082620003615750600162000400565b81620003705750600062000400565b81600181146200038957600281146200039457620003b4565b600191505062000400565b60ff841115620003a857620003a8620002f1565b50506001821b62000400565b5060208310610133831016604e8410600b8410161715620003d9575081810a62000400565b620003e5838362000307565b8060001904821115620003fc57620003fc620002f1565b0290505b92915050565b60006200041760ff84168362000350565b9392505050565b6000602082840312156200043157600080fd5b62000417826200022d565b6114c9806200044c6000396000f3fe608060405234801561001057600080fd5b50600436106101cf5760003560e01c80638da5cb5b11610104578063ca6a04bc116100a2578063e1098c6511610071578063e1098c65146104ef578063e816e7c614610516578063eb1c1c141461051f578063f2fde38b1461054557600080fd5b8063ca6a04bc14610491578063d3e848f11461049e578063d8cf24fd146104be578063dc48145e146104c657600080fd5b8063b37e7015116100de578063b37e70151461035b578063b6eb7a2014610380578063b950fb8f14610388578063c251119d1461046d57600080fd5b80638da5cb5b146103165780638dd3848f1461033457806395d89b411461035257600080fd5b8063313ce567116101715780635a0332a41161014b5780635a0332a4146102cb578063715018a6146102f257806374a12d95146102fa5780638a7b8cf21461030d57600080fd5b8063313ce5671461027557806336899042146102af5780634e669ede146102b857600080fd5b806315070401116101ad578063150704011461021857806315dae03e14610220578063210889db14610228578063213d39df1461026c57600080fd5b806307997da1146101d45780630d623e10146101e957806310c636e414610205575b600080fd5b6101e76101e236600461128b565b610558565b005b6101f260075481565b6040519081526020015b60405180910390f35b60015b60405190151581526020016101fc565b6001546101f2565b6007546101f2565b600854610100900473ffffffffffffffffffffffffffffffffffffffff165b60405173ffffffffffffffffffffffffffffffffffffffff90911681526020016101fc565b6101f260035481565b60045461029d9077010000000000000000000000000000000000000000000000900460ff1681565b60405160ff90911681526020016101fc565b6101f260025481565b6102086102c63660046112ad565b610c2c565b6004547801000000000000000000000000000000000000000000000000900460ff16610208565b6101e7610de7565b6101e76103083660046112e8565b610dfb565b6101f260065481565b60005473ffffffffffffffffffffffffffffffffffffffff16610247565b60045473ffffffffffffffffffffffffffffffffffffffff16610247565b6101f260015481565b60045461029d9074010000000000000000000000000000000000000000900460ff1681565b6002546101f2565b61041c6040805160c081018252600080825260208201819052918101829052606081018290526080810182905260a0810191909152506040805160c0810182526001548152600754602082015260025491810191909152600654606082015260045460ff7601000000000000000000000000000000000000000000009091048116608083015260085416151560a082015290565b6040516101fc9190600060c0820190508251825260208301516020830152604083015160408301526060830151606083015260ff608084015116608083015260a0830151151560a083015292915050565b6004547501000000000000000000000000000000000000000000900460ff16610208565b6008546102089060ff1681565b6004546102479073ffffffffffffffffffffffffffffffffffffffff1681565b6006546101f2565b600454610208907801000000000000000000000000000000000000000000000000900460ff1681565b60045461029d90760100000000000000000000000000000000000000000000900460ff1681565b6101f260055481565b600454610208907501000000000000000000000000000000000000000000900460ff1681565b6101e76105533660046112e8565b610f99565b60005473ffffffffffffffffffffffffffffffffffffffff1633148061059a5750600854610100900473ffffffffffffffffffffffffffffffffffffffff1633145b6105a357600080fd5b600854610100900473ffffffffffffffffffffffffffffffffffffffff16610652576040517f08c379a000000000000000000000000000000000000000000000000000000000815260206004820152603760248201527f7468697320646174612070726f766964657220686173206e6f74206265656e2060448201527f61737369676e656420746f206120636f6d6d697474656500000000000000000060648201526084015b60405180910390fd5b6004547801000000000000000000000000000000000000000000000000900460ff1615610727576040517f08c379a000000000000000000000000000000000000000000000000000000000815260206004820152604560248201527f7468697320646174612070726f76696465722068617320636f6e636c7564656460448201527f2c206d61726b696e67207468697320737461626c65636f696e2061732064657060648201527f6567676564000000000000000000000000000000000000000000000000000000608482015260a401610649565b6107666040518060400160405280600e81526020017f7265636f7264507269636520257300000000000000000000000000000000000081525082611050565b6107a56040518060400160405280600f81526020017f6f6e20626c6f636b206e756d202573000000000000000000000000000000000081525043611050565b6002544303610836576040517f08c379a000000000000000000000000000000000000000000000000000000000815260206004820152602e60248201527f4861766520616c7265616479207265636f726465642070726963657320666f7260448201527f207468697320626c6f636b6e756d0000000000000000000000000000000000006064820152608401610649565b600860019054906101000a900473ffffffffffffffffffffffffffffffffffffffff1673ffffffffffffffffffffffffffffffffffffffff1663c305c9186040518163ffffffff1660e01b8152600401602060405180830381865afa1580156108a3573d6000803e3d6000fd5b505050506040513d601f19601f820116820180604052508101906108c7919061130c565b431115610956576040517f08c379a000000000000000000000000000000000000000000000000000000000815260206004820152603060248201527f7468697320646174612070726f7669646572206861732066696e69736865642060448201527f7265636f7264696e6720707269636573000000000000000000000000000000006064820152608401610649565b6000600354826005546109699190611354565b10801591506109bd5760048054760100000000000000000000000000000000000000000000900460ff1690601661099f8361136d565b91906101000a81548160ff021916908360ff160217905550506109e6565b600480547fffffffffffffffffff00ffffffffffffffffffffffffffffffffffffffffffff1690555b60045460ff74010000000000000000000000000000000000000000820481167601000000000000000000000000000000000000000000009092041610610af0576004805478010000000000000000000000000000000000000000000000007fffffffffffffff00ffffffffffffffffffffffffffffffffffffffffffffffff909116178155600854604080517f30cff552000000000000000000000000000000000000000000000000000000008152905161010090920473ffffffffffffffffffffffffffffffffffffffff16926330cff55292828201926000929082900301818387803b158015610ad757600080fd5b505af1158015610aeb573d6000803e3d6000fd5b505050505b436002556006829055600880547fffffffffffffffffffffffffffffffffffffffffffffffffffffffffffffff00168215151790819055600154604080517f192eda8300000000000000000000000000000000000000000000000000000000815290519192610100900473ffffffffffffffffffffffffffffffffffffffff169163192eda83916004808201926020929091908290030181865afa158015610b9c573d6000803e3d6000fd5b505050506040513d601f19601f82011682018060405250810190610bc0919061138c565b600854604080514381526020810187905285151581830152905173ffffffffffffffffffffffffffffffffffffffff93841693610100909304909216917f8038c701194445b25b2bccfee6a311782c591da8e9f1f90a3e69b9b42fa6be0e9181900360600190a4505050565b600854600090610100900473ffffffffffffffffffffffffffffffffffffffff16610c9757610c8f6040518060400160405280601381526020017f66616c73652c206e6f20636f6d6d6974746565000000000000000000000000008152506110e5565b506000919050565b600860019054906101000a900473ffffffffffffffffffffffffffffffffffffffff1673ffffffffffffffffffffffffffffffffffffffff1663c305c9186040518163ffffffff1660e01b8152600401602060405180830381865afa158015610d04573d6000803e3d6000fd5b505050506040513d601f19601f82011682018060405250810190610d28919061130c565b821115610d5057610c8f6040518060600160405280602f8152602001611465602f91396110e5565b6002548211610d7a57610c8f604051806060016040528060228152602001611443602291396110e5565b6004547801000000000000000000000000000000000000000000000000900460ff1615610ddf57610c8f6040518060400160405280600f81526020017f66616c73652c20646570656767656400000000000000000000000000000000008152506110e5565b506001919050565b610def611174565b610df960006111f5565b565b60045473ffffffffffffffffffffffffffffffffffffffff163314610ea2576040517f08c379a000000000000000000000000000000000000000000000000000000000815260206004820152602d60248201527f6f6e6c79207468652073797374656d20616464726573732063616e206368616e60448201527f676520746865206f7261636c65000000000000000000000000000000000000006064820152608401610649565b600854610100900473ffffffffffffffffffffffffffffffffffffffff1615610f4d576040517f08c379a000000000000000000000000000000000000000000000000000000000815260206004820152603c60248201527f74686520636f6d6d69747465652068617320616c7265616479206265656e207360448201527f65742c2063616e206e6f206c6f6e676572206265206368616e676564000000006064820152608401610649565b6008805473ffffffffffffffffffffffffffffffffffffffff909216610100027fffffffffffffffffffffff0000000000000000000000000000000000000000ff909216919091179055565b610fa1611174565b73ffffffffffffffffffffffffffffffffffffffff8116611044576040517f08c379a000000000000000000000000000000000000000000000000000000000815260206004820152602660248201527f4f776e61626c653a206e6577206f776e657220697320746865207a65726f206160448201527f64647265737300000000000000000000000000000000000000000000000000006064820152608401610649565b61104d816111f5565b50565b6110e1828260405160240161106692919061140d565b604080517fffffffffffffffffffffffffffffffffffffffffffffffffffffffffffffffe08184030181529190526020810180517bffffffffffffffffffffffffffffffffffffffffffffffffffffffff167f9710a9d00000000000000000000000000000000000000000000000000000000017905261126a565b5050565b61104d816040516024016110f9919061142f565b604080517fffffffffffffffffffffffffffffffffffffffffffffffffffffffffffffffe08184030181529190526020810180517bffffffffffffffffffffffffffffffffffffffffffffffffffffffff167f41304fac0000000000000000000000000000000000000000000000000000000017905261126a565b60005473ffffffffffffffffffffffffffffffffffffffff163314610df9576040517f08c379a000000000000000000000000000000000000000000000000000000000815260206004820181905260248201527f4f776e61626c653a2063616c6c6572206973206e6f7420746865206f776e65726044820152606401610649565b6000805473ffffffffffffffffffffffffffffffffffffffff8381167fffffffffffffffffffffffff0000000000000000000000000000000000000000831681178455604051919092169283917f8be0079c531659141344cd1fd0a4f28419497f9722a3daafe3b4186f6b6457e09190a35050565b80516a636f6e736f6c652e6c6f67602083016000808483855afa5050505050565b6000806040838503121561129e57600080fd5b50508035926020909101359150565b6000602082840312156112bf57600080fd5b5035919050565b73ffffffffffffffffffffffffffffffffffffffff8116811461104d57600080fd5b6000602082840312156112fa57600080fd5b8135611305816112c6565b9392505050565b60006020828403121561131e57600080fd5b5051919050565b7f4e487b7100000000000000000000000000000000000000000000000000000000600052601160045260246000fd5b8181038181111561136757611367611325565b92915050565b600060ff821660ff810361138357611383611325565b60010192915050565b60006020828403121561139e57600080fd5b8151611305816112c6565b6000815180845260005b818110156113cf576020818501810151868301820152016113b3565b5060006020828601015260207fffffffffffffffffffffffffffffffffffffffffffffffffffffffffffffffe0601f83011685010191505092915050565b60408152600061142060408301856113a9565b90508260208301529392505050565b60208152600061130560208301846113a956fe66616c73652c205f6c31426c6f636b4e756d203c3d206c617374426c6f636b4e756d66616c73652c205f6c31426c6f636b4e756d203e20636f6d6d69747465652e676574456e64696e67426c6f636b2829a264697066735822122066f2ac67bd695c00d9d6e4ebe04904e3c275acee7066350ff8febae86a32641764736f6c63430008150033",
        "linkReferences": {}
    },
    "methodIdentifiers": {
        "decimals()": "313ce567",
        "depegTolerance()": "213d39df",
        "depegged()": "dc48145e",
        "getLastObservedBlock()": "b6eb7a20",
        "getLastPrice()": "d8cf24fd",
        "getOracleCommittee()": "210889db",
        "getProviderMetadata()": "b950fb8f",
        "getSymbol()": "15070401",
        "getSystemAddress()": "8dd3848f",
        "getType()": "15dae03e",
        "isDepegged()": "5a0332a4",
        "isGasMinimized()": "10c636e4",
        "isOnChain()": "c251119d",
        "lastBlockNum()": "36899042",
        "lastObservation()": "8a7b8cf2",
        "lastObservationDepegged()": "ca6a04bc",
        "minBlocksToSwitchStatus()": "b37e7015",
        "onChain()": "eb1c1c14",
        "oracleType()": "0d623e10",
        "owner()": "8da5cb5b",
        "recordPrice(uint256,uint256)": "07997da1",
        "renounceOwnership()": "715018a6",
        "setOracleCommittee(address)": "74a12d95",
        "shouldRecordPrice(uint256)": "4e669ede",
        "stableValue()": "e816e7c6",
        "switchStatusCounter()": "e1098c65",
        "symbol()": "95d89b41",
        "systemAddress()": "d3e848f1",
        "transferOwnership(address)": "f2fde38b"
    },
    "id": 44
}