{
  "abi": [
    {
      "inputs": [
        {
          "internalType": "bytes32",
          "name": "_symbol",
          "type": "bytes32"
        },
        {
          "internalType": "address",
          "name": "_l1TokenAddress",
          "type": "address"
        },
        {
          "internalType": "uint256",
          "name": "_startingBlock",
          "type": "uint256"
        },
        {
          "internalType": "uint256",
          "name": "_endingBlock",
          "type": "uint256"
        }
      ],
      "stateMutability": "nonpayable",
      "type": "constructor"
    },
    {
      "anonymous": false,
      "inputs": [
        {
          "indexed": true,
          "internalType": "bytes32",
          "name": "symbol",
          "type": "bytes32"
        },
        {
          "indexed": true,
          "internalType": "address",
          "name": "l1TokenAddress",
          "type": "address"
        },
        {
          "indexed": false,
          "internalType": "uint256",
          "name": "startingBlock",
          "type": "uint256"
        },
        {
          "indexed": false,
          "internalType": "uint256",
          "name": "endingBlock",
          "type": "uint256"
        },
        {
          "indexed": false,
          "internalType": "address",
          "name": "systemAddress",
          "type": "address"
        }
      ],
      "name": "OracleCommitteeCreated",
      "type": "event"
    },
    {
      "anonymous": false,
      "inputs": [
        {
          "indexed": true,
          "internalType": "address",
          "name": "previousOwner",
          "type": "address"
        },
        {
          "indexed": true,
          "internalType": "address",
          "name": "newOwner",
          "type": "address"
        }
      ],
      "name": "OwnershipTransferred",
      "type": "event"
    },
    {
      "inputs": [
        {
          "internalType": "bytes32",
          "name": "_oracleType",
          "type": "bytes32"
        },
        {
          "internalType": "uint256",
          "name": "_depegTolerance",
          "type": "uint256"
        },
        {
          "internalType": "uint8",
          "name": "_minBlocksToSwitchStatus",
          "type": "uint8"
        },
        {
          "internalType": "uint8",
          "name": "_decimals",
          "type": "uint8"
        },
        {
          "internalType": "bool",
          "name": "_isOnChain",
          "type": "bool"
        }
      ],
      "name": "addNewProvider",
      "outputs": [
        {
          "internalType": "address",
          "name": "",
          "type": "address"
        }
      ],
      "stateMutability": "nonpayable",
      "type": "function"
    },
    {
      "inputs": [
        {
          "internalType": "address",
          "name": "",
          "type": "address"
        }
      ],
      "name": "depeggedProviders",
      "outputs": [
        {
          "internalType": "enum OracleCommittee.ProviderStatus",
          "name": "",
          "type": "uint8"
        }
      ],
      "stateMutability": "view",
      "type": "function"
    },
    {
      "inputs": [],
      "name": "endingBlock",
      "outputs": [
        {
          "internalType": "uint256",
          "name": "",
          "type": "uint256"
        }
      ],
      "stateMutability": "view",
      "type": "function"
    },
    {
      "inputs": [],
      "name": "getEndingBlock",
      "outputs": [
        {
          "internalType": "uint256",
          "name": "",
          "type": "uint256"
        }
      ],
      "stateMutability": "view",
      "type": "function"
    },
    {
      "inputs": [],
      "name": "getOracleMetadata",
      "outputs": [
        {
          "components": [
            {
              "internalType": "bytes32",
              "name": "symbol",
              "type": "bytes32"
            },
            {
              "internalType": "address",
              "name": "l1TokenAddress",
              "type": "address"
            },
            {
              "internalType": "uint256",
              "name": "startingBlock",
              "type": "uint256"
            },
            {
              "internalType": "uint256",
              "name": "endingBlock",
              "type": "uint256"
            },
            {
              "internalType": "uint256",
              "name": "providersReportingDepeg",
              "type": "uint256"
            },
            {
              "internalType": "address[]",
              "name": "providers",
              "type": "address[]"
            }
          ],
          "internalType": "struct OracleCommittee.OnlyTheMostRelevantOracleMetadata",
          "name": "",
          "type": "tuple"
        }
      ],
      "stateMutability": "view",
      "type": "function"
    },
    {
      "inputs": [],
      "name": "getPolicyAddress",
      "outputs": [
        {
          "internalType": "address",
          "name": "",
          "type": "address"
        }
      ],
      "stateMutability": "view",
      "type": "function"
    },
    {
      "inputs": [],
      "name": "getProviders",
      "outputs": [
        {
          "internalType": "address[]",
          "name": "",
          "type": "address[]"
        }
      ],
      "stateMutability": "view",
      "type": "function"
    },
    {
      "inputs": [],
      "name": "isClosed",
      "outputs": [
        {
          "internalType": "bool",
          "name": "",
          "type": "bool"
        }
      ],
      "stateMutability": "view",
      "type": "function"
    },
    {
      "inputs": [],
      "name": "isDepegged",
      "outputs": [
        {
          "internalType": "bool",
          "name": "",
          "type": "bool"
        }
      ],
      "stateMutability": "view",
      "type": "function"
    },
    {
      "inputs": [],
      "name": "l1TokenAddress",
      "outputs": [
        {
          "internalType": "address",
          "name": "",
          "type": "address"
        }
      ],
      "stateMutability": "view",
      "type": "function"
    },
    {
      "inputs": [],
      "name": "minProvidersForQuorum",
      "outputs": [
        {
          "internalType": "uint256",
          "name": "",
          "type": "uint256"
        }
      ],
      "stateMutability": "view",
      "type": "function"
    },
    {
      "inputs": [],
      "name": "owner",
      "outputs": [
        {
          "internalType": "address",
          "name": "",
          "type": "address"
        }
      ],
      "stateMutability": "view",
      "type": "function"
    },
    {
      "inputs": [],
      "name": "policyId",
      "outputs": [
        {
          "internalType": "uint256",
          "name": "",
          "type": "uint256"
        }
      ],
      "stateMutability": "view",
      "type": "function"
    },
    {
      "inputs": [],
      "name": "policyManager",
      "outputs": [
        {
          "internalType": "contract IPolicyManager",
          "name": "",
          "type": "address"
        }
      ],
      "stateMutability": "view",
      "type": "function"
    },
    {
      "inputs": [
        {
          "internalType": "uint256",
          "name": "",
          "type": "uint256"
        }
      ],
      "name": "providers",
      "outputs": [
        {
          "internalType": "address",
          "name": "",
          "type": "address"
        }
      ],
      "stateMutability": "view",
      "type": "function"
    },
    {
      "inputs": [],
      "name": "providersReportingDepeg",
      "outputs": [
        {
          "internalType": "uint8",
          "name": "",
          "type": "uint8"
        }
      ],
      "stateMutability": "view",
      "type": "function"
    },
    {
      "inputs": [
        {
          "internalType": "address",
          "name": "_provider",
          "type": "address"
        },
        {
          "internalType": "uint256",
          "name": "_l1BlockNum",
          "type": "uint256"
        },
        {
          "internalType": "uint256",
          "name": "_price",
          "type": "uint256"
        }
      ],
      "name": "recordPriceForProvider",
      "outputs": [],
      "stateMutability": "nonpayable",
      "type": "function"
    },
    {
      "inputs": [],
      "name": "recordProviderAsDepegged",
      "outputs": [],
      "stateMutability": "nonpayable",
      "type": "function"
    },
    {
      "inputs": [],
      "name": "renounceOwnership",
      "outputs": [],
      "stateMutability": "nonpayable",
      "type": "function"
    },
    {
      "inputs": [
        {
          "internalType": "address",
          "name": "_policy",
          "type": "address"
        },
        {
          "internalType": "uint256",
          "name": "_policyId",
          "type": "uint256"
        }
      ],
      "name": "setPolicy",
      "outputs": [],
      "stateMutability": "nonpayable",
      "type": "function"
    },
    {
      "inputs": [],
      "name": "startingBlock",
      "outputs": [
        {
          "internalType": "uint256",
          "name": "",
          "type": "uint256"
        }
      ],
      "stateMutability": "view",
      "type": "function"
    },
    {
      "inputs": [],
      "name": "symbol",
      "outputs": [
        {
          "internalType": "bytes32",
          "name": "",
          "type": "bytes32"
        }
      ],
      "stateMutability": "view",
      "type": "function"
    },
    {
      "inputs": [],
      "name": "systemAddress",
      "outputs": [
        {
          "internalType": "address",
          "name": "",
          "type": "address"
        }
      ],
      "stateMutability": "view",
      "type": "function"
    },
    {
      "inputs": [
        {
          "internalType": "address",
          "name": "newOwner",
          "type": "address"
        }
      ],
      "name": "transferOwnership",
      "outputs": [],
      "stateMutability": "nonpayable",
      "type": "function"
    }
  ],
  "bytecode": {
    "object": "0x60806040526008805460ff191690553480156200001b57600080fd5b506040516200368d3803806200368d8339810160408190526200003e916200023a565b6200004933620001ea565b6001600160a01b038316620000b05760405162461bcd60e51b815260206004820152602260248201527f4c3120746f6b656e2061646472657373206d7573742062652073706563696669604482015261195960f21b60648201526084015b60405180910390fd5b808210620001145760405162461bcd60e51b815260206004820152602a60248201527f5374617274696e6720626c6f636b206d757374206265206265666f726520656e60448201526964696e6720626c6f636b60b01b6064820152608401620000a7565b83620001635760405162461bcd60e51b815260206004820152601860248201527f53796d626f6c206d7573742062652073706563696669656400000000000000006044820152606401620000a7565b6007849055600680546001600160a01b038581166001600160a01b03199092168217909255600184905560028390556005546040805186815260208101869052610100909204909316818401529151909186917fa3becef588481aec413fd9175181d7803c3f4bb4d1f6ee09dbd8aecac2af40b69181900360600190a35050505062000287565b600080546001600160a01b038381166001600160a01b0319831681178455604051919092169283917f8be0079c531659141344cd1fd0a4f28419497f9722a3daafe3b4186f6b6457e09190a35050565b600080600080608085870312156200025157600080fd5b845160208601519094506001600160a01b03811681146200027157600080fd5b6040860151606090960151949790965092505050565b6133f680620002976000396000f3fe60806040523480156200001157600080fd5b5060043610620001b95760003560e01c8063ab3dbf3b11620000f5578063d91c98d31162000097578063ee89ef3a116200006e578063ee89ef3a14620003db578063f2fde38b14620003e5578063fdea0b7514620003fc57600080fd5b8063d91c98d314620003a1578063e980f17114620003ab578063edc922a914620003c257600080fd5b8063c4da27b711620000cc578063c4da27b71462000343578063c72f3ed81462000364578063d3e848f1146200037b57600080fd5b8063ab3dbf3b146200030a578063c2b6b58c1462000330578063c305c918146200033a57600080fd5b8063715018a6116200015f57806395d89b41116200013657806395d89b4114620002aa578063a3d6b9de14620002b4578063a6fa7c3514620002d557600080fd5b8063715018a614620002775780637b1f337d14620002815780638da5cb5b146200028b57600080fd5b806350f3fc81116200019457806350f3fc81146200022c5780635a0332a414620002435780636b8d3012146200025e57600080fd5b8063192eda8314620001be5780631cf60669146200020757806330cff5521462000220575b600080fd5b600854610100900473ffffffffffffffffffffffffffffffffffffffff165b60405173ffffffffffffffffffffffffffffffffffffffff90911681526020015b60405180910390f35b6200021162000413565b604051620001fe9190620015d0565b6200022a62000522565b005b620001dd6200023d36600462001674565b620007be565b6200024d620007f6565b6040519015158152602001620001fe565b6200026860035481565b604051908152602001620001fe565b6200022a6200083c565b6200026860025481565b60005473ffffffffffffffffffffffffffffffffffffffff16620001dd565b6200026860075481565b600554620002c29060ff1681565b60405160ff9091168152602001620001fe565b620002fb620002e6366004620016b8565b60096020526000908152604090205460ff1681565b604051620001fe91906200170c565b600854620001dd90610100900473ffffffffffffffffffffffffffffffffffffffff1681565b6200024d62000852565b60025462000268565b600654620001dd9073ffffffffffffffffffffffffffffffffffffffff1681565b620001dd620003753660046200176f565b620008d8565b600554620001dd90610100900473ffffffffffffffffffffffffffffffffffffffff1681565b6200026860015481565b6200022a620003bc366004620017d1565b62000d56565b620003cc62000f8c565b604051620001fe9190620017fe565b6200026860045481565b6200022a620003f6366004620016b8565b62000ffd565b6200022a6200040d3660046200185a565b620010ba565b620004666040518060c0016040528060008019168152602001600073ffffffffffffffffffffffffffffffffffffffff168152602001600081526020016000815260200160008152602001606081525090565b6040805160c081018252600754815260065473ffffffffffffffffffffffffffffffffffffffff1660208083019190915260015482840152600254606083015260055460ff166080830152600a8054845181840281018401909552808552929360a085019390928301828280156200051557602002820191906000526020600020905b815473ffffffffffffffffffffffffffffffffffffffff168152600190910190602001808311620004e9575b5050505050815250905090565b60085460ff1662000594576040517f08c379a000000000000000000000000000000000000000000000000000000000815260206004820152601760248201527f506f6c69637920686173206e6f74206265656e2073657400000000000000000060448201526064015b60405180910390fd5b43600154111562000602576040517f08c379a000000000000000000000000000000000000000000000000000000000815260206004820152601d60248201527f436f6d6d697474656520686173206e6f7420737461727465642079657400000060448201526064016200058b565b60013360009081526009602052604090205460ff1660028111156200062b576200062b620016dd565b14620006ba576040517f08c379a000000000000000000000000000000000000000000000000000000000815260206004820152603560248201527f70726f766964657220697320656974686572206e6f742072656769737465726560448201527f64206f7220616c7265616479206465706567676564000000000000000000000060648201526084016200058b565b33600090815260096020526040812080547fffffffffffffffffffffffffffffffffffffffffffffffffffffffffffffff001660021790556005805460ff16916200070583620018bf565b82546101009290920a60ff818102199093169183160217909155600354600554909116109050620007bc57600854600480546040517ff18e76790000000000000000000000000000000000000000000000000000000081529182015261010090910473ffffffffffffffffffffffffffffffffffffffff169063f18e767990602401600060405180830381600087803b158015620007a257600080fd5b505af1158015620007b7573d6000803e3d6000fd5b505050505b565b600a8181548110620007cf57600080fd5b60009182526020909120015473ffffffffffffffffffffffffffffffffffffffff16905081565b60006001544310156200082d576200082760405180608001604052806055815260200162003345605591396200137d565b50600090565b5060035460055460ff16101590565b6200084662001410565b620007bc600062001493565b60003073ffffffffffffffffffffffffffffffffffffffff16635a0332a46040518163ffffffff1660e01b8152600401602060405180830381865afa158015620008a0573d6000803e3d6000fd5b505050506040513d601f19601f82011682018060405250810190620008c69190620018e1565b80620008d3575060025443115b905090565b60085460009060ff1662000949576040517f08c379a000000000000000000000000000000000000000000000000000000000815260206004820152601760248201527f506f6c69637920686173206e6f74206265656e2073657400000000000000000060448201526064016200058b565b60005473ffffffffffffffffffffffffffffffffffffffff163314806200098c5750600854610100900473ffffffffffffffffffffffffffffffffffffffff1633145b62000a1a576040517f08c379a000000000000000000000000000000000000000000000000000000000815260206004820152602b60248201527f4f6e6c79206f776e6572206f7220706f6c6963792063616e2063616c6c20746860448201527f69732066756e6374696f6e00000000000000000000000000000000000000000060648201526084016200058b565b3073ffffffffffffffffffffffffffffffffffffffff1663c2b6b58c6040518163ffffffff1660e01b8152600401602060405180830381865afa15801562000a66573d6000803e3d6000fd5b505050506040513d601f19601f8201168201806040525081019062000a8c9190620018e1565b1562000af5576040517f08c379a000000000000000000000000000000000000000000000000000000000815260206004820152601360248201527f436f6d6d697474656520697320636c6f7365640000000000000000000000000060448201526064016200058b565b3360009081526009602052604081205460ff16600281111562000b1c5762000b1c620016dd565b1462000b85576040517f08c379a000000000000000000000000000000000000000000000000000000000815260206004820152601b60248201527f50726f766964657220616c72656164792072656769737465726564000000000060448201526064016200058b565b62000bc56040518060400160405280601881526020017f4372656174696e67206e65772070726f76696465722e2e2e00000000000000008152506200137d565b600086600560019054906101000a900473ffffffffffffffffffffffffffffffffffffffff16306007548989898960405162000c0190620015c2565b97885273ffffffffffffffffffffffffffffffffffffffff96871660208901529590941660408701526060860192909252608085015260ff90811660a08501521660c0830152151560e082015261010001604051809103906000f08015801562000c6f573d6000803e3d6000fd5b5073ffffffffffffffffffffffffffffffffffffffff8116600081815260096020526040812080547fffffffffffffffffffffffffffffffffffffffffffffffffffffffffffffff00166001908117909155600a80549182018155918290527fc65a7bb8d6351c1cf70c95a316cc6a92839c986682d98bc35f958f4883f9d2a80180547fffffffffffffffffffffffff0000000000000000000000000000000000000000169092179091555490915062000d2c9060029062001930565b600a5462000d3d9060029062001947565b62000d4991906200195e565b6003559695505050505050565b60005473ffffffffffffffffffffffffffffffffffffffff1633148062000d995750600854610100900473ffffffffffffffffffffffffffffffffffffffff1633145b62000e27576040517f08c379a000000000000000000000000000000000000000000000000000000000815260206004820152602b60248201527f4f6e6c79206f776e6572206f7220706f6c6963792063616e2063616c6c20746860448201527f69732066756e6374696f6e00000000000000000000000000000000000000000060648201526084016200058b565b60085460ff161562000e96576040517f08c379a000000000000000000000000000000000000000000000000000000000815260206004820152601260248201527f506f6c69637920616c726561647920736574000000000000000000000000000060448201526064016200058b565b73ffffffffffffffffffffffffffffffffffffffff821662000f15576040517f08c379a000000000000000000000000000000000000000000000000000000000815260206004820152601860248201527f506f6c696379206d75737420626520737065636966696564000000000000000060448201526064016200058b565b600880546004929092557fffffffffffffffffffffffffffffffffffffffffffffffffffffffffffffff0073ffffffffffffffffffffffffffffffffffffffff90931661010002929092167fffffffffffffffffffffff000000000000000000000000000000000000000000909116176001179055565b6060600a80548060200260200160405190810160405280929190818152602001828054801562000ff357602002820191906000526020600020905b815473ffffffffffffffffffffffffffffffffffffffff16815260019091019060200180831162000fc7575b5050505050905090565b6200100762001410565b73ffffffffffffffffffffffffffffffffffffffff8116620010ac576040517f08c379a000000000000000000000000000000000000000000000000000000000815260206004820152602660248201527f4f776e61626c653a206e6577206f776e657220697320746865207a65726f206160448201527f646472657373000000000000000000000000000000000000000000000000000060648201526084016200058b565b620010b78162001493565b50565b60085460ff1662001128576040517f08c379a000000000000000000000000000000000000000000000000000000000815260206004820152601760248201527f506f6c69637920686173206e6f74206265656e2073657400000000000000000060448201526064016200058b565b60005473ffffffffffffffffffffffffffffffffffffffff163314806200116b5750600854610100900473ffffffffffffffffffffffffffffffffffffffff1633145b620011f9576040517f08c379a000000000000000000000000000000000000000000000000000000000815260206004820152602b60248201527f4f6e6c79206f776e6572206f7220706f6c6963792063616e2063616c6c20746860448201527f69732066756e6374696f6e00000000000000000000000000000000000000000060648201526084016200058b565b600173ffffffffffffffffffffffffffffffffffffffff841660009081526009602052604090205460ff166002811115620012385762001238620016dd565b14620012c7576040517f08c379a000000000000000000000000000000000000000000000000000000000815260206004820152603560248201527f70726f766964657220697320656974686572206e6f742072656769737465726560448201527f64206f7220616c7265616479206465706567676564000000000000000000000060648201526084016200058b565b620012ec6040518060600160405280602781526020016200339a602791398462001508565b6040517f07997da10000000000000000000000000000000000000000000000000000000081526004810183905260248101829052839073ffffffffffffffffffffffffffffffffffffffff8216906307997da190604401600060405180830381600087803b1580156200135e57600080fd5b505af115801562001373573d6000803e3d6000fd5b5050505050505050565b620010b781604051602401620013949190620019e0565b604080517fffffffffffffffffffffffffffffffffffffffffffffffffffffffffffffffe08184030181529190526020810180517bffffffffffffffffffffffffffffffffffffffffffffffffffffffff167f41304fac00000000000000000000000000000000000000000000000000000000179052620015a1565b60005473ffffffffffffffffffffffffffffffffffffffff163314620007bc576040517f08c379a000000000000000000000000000000000000000000000000000000000815260206004820181905260248201527f4f776e61626c653a2063616c6c6572206973206e6f7420746865206f776e657260448201526064016200058b565b6000805473ffffffffffffffffffffffffffffffffffffffff8381167fffffffffffffffffffffffff0000000000000000000000000000000000000000831681178455604051919092169283917f8be0079c531659141344cd1fd0a4f28419497f9722a3daafe3b4186f6b6457e09190a35050565b6200159d828260405160240162001521929190620019f5565b604080517fffffffffffffffffffffffffffffffffffffffffffffffffffffffffffffffe08184030181529190526020810180517bffffffffffffffffffffffffffffffffffffffffffffffffffffffff167f319af33300000000000000000000000000000000000000000000000000000000179052620015a1565b5050565b80516a636f6e736f6c652e6c6f67602083016000808483855afa5050505050565b6119158062001a3083390190565b6000602080835260e083018451828501528185015173ffffffffffffffffffffffffffffffffffffffff80821660408701526040870151606087015260608701516080870152608087015160a087015260a0870151915060c080870152828251808552610100880191508584019450600093505b80841015620016685784518316825293850193600193909301929085019062001644565b50979650505050505050565b6000602082840312156200168757600080fd5b5035919050565b803573ffffffffffffffffffffffffffffffffffffffff81168114620016b357600080fd5b919050565b600060208284031215620016cb57600080fd5b620016d6826200168e565b9392505050565b7f4e487b7100000000000000000000000000000000000000000000000000000000600052602160045260246000fd5b602081016003831062001748577f4e487b7100000000000000000000000000000000000000000000000000000000600052602160045260246000fd5b91905290565b803560ff81168114620016b357600080fd5b8015158114620010b757600080fd5b600080600080600060a086880312156200178857600080fd5b8535945060208601359350620017a1604087016200174e565b9250620017b1606087016200174e565b91506080860135620017c38162001760565b809150509295509295909350565b60008060408385031215620017e557600080fd5b620017f0836200168e565b946020939093013593505050565b6020808252825182820181905260009190848201906040850190845b818110156200184e57835173ffffffffffffffffffffffffffffffffffffffff16835292840192918401916001016200181a565b50909695505050505050565b6000806000606084860312156200187057600080fd5b6200187b846200168e565b95602085013595506040909401359392505050565b7f4e487b7100000000000000000000000000000000000000000000000000000000600052601160045260246000fd5b600060ff821660ff8103620018d857620018d862001890565b60010192915050565b600060208284031215620018f457600080fd5b8151620016d68162001760565b7f4e487b7100000000000000000000000000000000000000000000000000000000600052601260045260246000fd5b60008262001942576200194262001901565b500690565b60008262001959576200195962001901565b500490565b8082018082111562001974576200197462001890565b92915050565b6000815180845260005b81811015620019a25760208185018101518683018201520162001984565b5060006020828601015260207fffffffffffffffffffffffffffffffffffffffffffffffffffffffffffffffe0601f83011685010191505092915050565b602081526000620016d660208301846200197a565b60408152600062001a0a60408301856200197a565b905073ffffffffffffffffffffffffffffffffffffffff83166020830152939250505056fe60806040526004805460ff60c01b191690556008805460ff191690553480156200002857600080fd5b5060405162001915380380620019158339810160408190526200004b916200025c565b6200005633620001dd565b600788905560018590556004805460ff848116600160b81b02600163ff00000160a01b0319918716600160a01b0291909116600162ff000160a81b0319909216919091176001600160a01b038a1617179055620000b582600a62000406565b60055560038490556004805460ff60a81b1916600160a81b8315150217815560088054610100600160a81b0319166101006001600160a01b038a8116820292909217928390556040805163192eda8360e01b815290518a95929094049092169263192eda839280830192602092918290030181865afa1580156200013d573d6000803e3d6000fd5b505050506040513d601f19601f820116820180604052508101906200016391906200041e565b600554604080518c81526020810189905260ff8881168284015287166060820152851515608082015260a0810192909252516001600160a01b03928316928a16917fb0b4a28386383e1c9fdc3d0c65f8e5ef42578c391b261abd045aad76d047a8aa919081900360c00190a450505050505050506200043c565b600080546001600160a01b038381166001600160a01b0319831681178455604051919092169283917f8be0079c531659141344cd1fd0a4f28419497f9722a3daafe3b4186f6b6457e09190a35050565b80516001600160a01b03811681146200024557600080fd5b919050565b805160ff811681146200024557600080fd5b600080600080600080600080610100898b0312156200027a57600080fd5b885197506200028c60208a016200022d565b96506200029c60408a016200022d565b95506060890151945060808901519350620002ba60a08a016200024a565b9250620002ca60c08a016200024a565b915060e08901518015158114620002e057600080fd5b809150509295985092959890939650565b634e487b7160e01b600052601160045260246000fd5b600181815b80851115620003485781600019048211156200032c576200032c620002f1565b808516156200033a57918102915b93841c93908002906200030c565b509250929050565b600082620003615750600162000400565b81620003705750600062000400565b81600181146200038957600281146200039457620003b4565b600191505062000400565b60ff841115620003a857620003a8620002f1565b50506001821b62000400565b5060208310610133831016604e8410600b8410161715620003d9575081810a62000400565b620003e5838362000307565b8060001904821115620003fc57620003fc620002f1565b0290505b92915050565b60006200041760ff84168362000350565b9392505050565b6000602082840312156200043157600080fd5b62000417826200022d565b6114c9806200044c6000396000f3fe608060405234801561001057600080fd5b50600436106101cf5760003560e01c80638da5cb5b11610104578063ca6a04bc116100a2578063e1098c6511610071578063e1098c65146104ef578063e816e7c614610516578063eb1c1c141461051f578063f2fde38b1461054557600080fd5b8063ca6a04bc14610491578063d3e848f11461049e578063d8cf24fd146104be578063dc48145e146104c657600080fd5b8063b37e7015116100de578063b37e70151461035b578063b6eb7a2014610380578063b950fb8f14610388578063c251119d1461046d57600080fd5b80638da5cb5b146103165780638dd3848f1461033457806395d89b411461035257600080fd5b8063313ce567116101715780635a0332a41161014b5780635a0332a4146102cb578063715018a6146102f257806374a12d95146102fa5780638a7b8cf21461030d57600080fd5b8063313ce5671461027557806336899042146102af5780634e669ede146102b857600080fd5b806315070401116101ad578063150704011461021857806315dae03e14610220578063210889db14610228578063213d39df1461026c57600080fd5b806307997da1146101d45780630d623e10146101e957806310c636e414610205575b600080fd5b6101e76101e236600461128b565b610558565b005b6101f260075481565b6040519081526020015b60405180910390f35b60015b60405190151581526020016101fc565b6001546101f2565b6007546101f2565b600854610100900473ffffffffffffffffffffffffffffffffffffffff165b60405173ffffffffffffffffffffffffffffffffffffffff90911681526020016101fc565b6101f260035481565b60045461029d9077010000000000000000000000000000000000000000000000900460ff1681565b60405160ff90911681526020016101fc565b6101f260025481565b6102086102c63660046112ad565b610c2c565b6004547801000000000000000000000000000000000000000000000000900460ff16610208565b6101e7610de7565b6101e76103083660046112e8565b610dfb565b6101f260065481565b60005473ffffffffffffffffffffffffffffffffffffffff16610247565b60045473ffffffffffffffffffffffffffffffffffffffff16610247565b6101f260015481565b60045461029d9074010000000000000000000000000000000000000000900460ff1681565b6002546101f2565b61041c6040805160c081018252600080825260208201819052918101829052606081018290526080810182905260a0810191909152506040805160c0810182526001548152600754602082015260025491810191909152600654606082015260045460ff7601000000000000000000000000000000000000000000009091048116608083015260085416151560a082015290565b6040516101fc9190600060c0820190508251825260208301516020830152604083015160408301526060830151606083015260ff608084015116608083015260a0830151151560a083015292915050565b6004547501000000000000000000000000000000000000000000900460ff16610208565b6008546102089060ff1681565b6004546102479073ffffffffffffffffffffffffffffffffffffffff1681565b6006546101f2565b600454610208907801000000000000000000000000000000000000000000000000900460ff1681565b60045461029d90760100000000000000000000000000000000000000000000900460ff1681565b6101f260055481565b600454610208907501000000000000000000000000000000000000000000900460ff1681565b6101e76105533660046112e8565b610f99565b60005473ffffffffffffffffffffffffffffffffffffffff1633148061059a5750600854610100900473ffffffffffffffffffffffffffffffffffffffff1633145b6105a357600080fd5b600854610100900473ffffffffffffffffffffffffffffffffffffffff16610652576040517f08c379a000000000000000000000000000000000000000000000000000000000815260206004820152603760248201527f7468697320646174612070726f766964657220686173206e6f74206265656e2060448201527f61737369676e656420746f206120636f6d6d697474656500000000000000000060648201526084015b60405180910390fd5b6004547801000000000000000000000000000000000000000000000000900460ff1615610727576040517f08c379a000000000000000000000000000000000000000000000000000000000815260206004820152604560248201527f7468697320646174612070726f76696465722068617320636f6e636c7564656460448201527f2c206d61726b696e67207468697320737461626c65636f696e2061732064657060648201527f6567676564000000000000000000000000000000000000000000000000000000608482015260a401610649565b6107666040518060400160405280600e81526020017f7265636f7264507269636520257300000000000000000000000000000000000081525082611050565b6107a56040518060400160405280600f81526020017f6f6e20626c6f636b206e756d202573000000000000000000000000000000000081525043611050565b6002544303610836576040517f08c379a000000000000000000000000000000000000000000000000000000000815260206004820152602e60248201527f4861766520616c7265616479207265636f726465642070726963657320666f7260448201527f207468697320626c6f636b6e756d0000000000000000000000000000000000006064820152608401610649565b600860019054906101000a900473ffffffffffffffffffffffffffffffffffffffff1673ffffffffffffffffffffffffffffffffffffffff1663c305c9186040518163ffffffff1660e01b8152600401602060405180830381865afa1580156108a3573d6000803e3d6000fd5b505050506040513d601f19601f820116820180604052508101906108c7919061130c565b431115610956576040517f08c379a000000000000000000000000000000000000000000000000000000000815260206004820152603060248201527f7468697320646174612070726f7669646572206861732066696e69736865642060448201527f7265636f7264696e6720707269636573000000000000000000000000000000006064820152608401610649565b6000600354826005546109699190611354565b10801591506109bd5760048054760100000000000000000000000000000000000000000000900460ff1690601661099f8361136d565b91906101000a81548160ff021916908360ff160217905550506109e6565b600480547fffffffffffffffffff00ffffffffffffffffffffffffffffffffffffffffffff1690555b60045460ff74010000000000000000000000000000000000000000820481167601000000000000000000000000000000000000000000009092041610610af0576004805478010000000000000000000000000000000000000000000000007fffffffffffffff00ffffffffffffffffffffffffffffffffffffffffffffffff909116178155600854604080517f30cff552000000000000000000000000000000000000000000000000000000008152905161010090920473ffffffffffffffffffffffffffffffffffffffff16926330cff55292828201926000929082900301818387803b158015610ad757600080fd5b505af1158015610aeb573d6000803e3d6000fd5b505050505b436002556006829055600880547fffffffffffffffffffffffffffffffffffffffffffffffffffffffffffffff00168215151790819055600154604080517f192eda8300000000000000000000000000000000000000000000000000000000815290519192610100900473ffffffffffffffffffffffffffffffffffffffff169163192eda83916004808201926020929091908290030181865afa158015610b9c573d6000803e3d6000fd5b505050506040513d601f19601f82011682018060405250810190610bc0919061138c565b600854604080514381526020810187905285151581830152905173ffffffffffffffffffffffffffffffffffffffff93841693610100909304909216917f8038c701194445b25b2bccfee6a311782c591da8e9f1f90a3e69b9b42fa6be0e9181900360600190a4505050565b600854600090610100900473ffffffffffffffffffffffffffffffffffffffff16610c9757610c8f6040518060400160405280601381526020017f66616c73652c206e6f20636f6d6d6974746565000000000000000000000000008152506110e5565b506000919050565b600860019054906101000a900473ffffffffffffffffffffffffffffffffffffffff1673ffffffffffffffffffffffffffffffffffffffff1663c305c9186040518163ffffffff1660e01b8152600401602060405180830381865afa158015610d04573d6000803e3d6000fd5b505050506040513d601f19601f82011682018060405250810190610d28919061130c565b821115610d5057610c8f6040518060600160405280602f8152602001611465602f91396110e5565b6002548211610d7a57610c8f604051806060016040528060228152602001611443602291396110e5565b6004547801000000000000000000000000000000000000000000000000900460ff1615610ddf57610c8f6040518060400160405280600f81526020017f66616c73652c20646570656767656400000000000000000000000000000000008152506110e5565b506001919050565b610def611174565b610df960006111f5565b565b60045473ffffffffffffffffffffffffffffffffffffffff163314610ea2576040517f08c379a000000000000000000000000000000000000000000000000000000000815260206004820152602d60248201527f6f6e6c79207468652073797374656d20616464726573732063616e206368616e60448201527f676520746865206f7261636c65000000000000000000000000000000000000006064820152608401610649565b600854610100900473ffffffffffffffffffffffffffffffffffffffff1615610f4d576040517f08c379a000000000000000000000000000000000000000000000000000000000815260206004820152603c60248201527f74686520636f6d6d69747465652068617320616c7265616479206265656e207360448201527f65742c2063616e206e6f206c6f6e676572206265206368616e676564000000006064820152608401610649565b6008805473ffffffffffffffffffffffffffffffffffffffff909216610100027fffffffffffffffffffffff0000000000000000000000000000000000000000ff909216919091179055565b610fa1611174565b73ffffffffffffffffffffffffffffffffffffffff8116611044576040517f08c379a000000000000000000000000000000000000000000000000000000000815260206004820152602660248201527f4f776e61626c653a206e6577206f776e657220697320746865207a65726f206160448201527f64647265737300000000000000000000000000000000000000000000000000006064820152608401610649565b61104d816111f5565b50565b6110e1828260405160240161106692919061140d565b604080517fffffffffffffffffffffffffffffffffffffffffffffffffffffffffffffffe08184030181529190526020810180517bffffffffffffffffffffffffffffffffffffffffffffffffffffffff167f9710a9d00000000000000000000000000000000000000000000000000000000017905261126a565b5050565b61104d816040516024016110f9919061142f565b604080517fffffffffffffffffffffffffffffffffffffffffffffffffffffffffffffffe08184030181529190526020810180517bffffffffffffffffffffffffffffffffffffffffffffffffffffffff167f41304fac0000000000000000000000000000000000000000000000000000000017905261126a565b60005473ffffffffffffffffffffffffffffffffffffffff163314610df9576040517f08c379a000000000000000000000000000000000000000000000000000000000815260206004820181905260248201527f4f776e61626c653a2063616c6c6572206973206e6f7420746865206f776e65726044820152606401610649565b6000805473ffffffffffffffffffffffffffffffffffffffff8381167fffffffffffffffffffffffff0000000000000000000000000000000000000000831681178455604051919092169283917f8be0079c531659141344cd1fd0a4f28419497f9722a3daafe3b4186f6b6457e09190a35050565b80516a636f6e736f6c652e6c6f67602083016000808483855afa5050505050565b6000806040838503121561129e57600080fd5b50508035926020909101359150565b6000602082840312156112bf57600080fd5b5035919050565b73ffffffffffffffffffffffffffffffffffffffff8116811461104d57600080fd5b6000602082840312156112fa57600080fd5b8135611305816112c6565b9392505050565b60006020828403121561131e57600080fd5b5051919050565b7f4e487b7100000000000000000000000000000000000000000000000000000000600052601160045260246000fd5b8181038181111561136757611367611325565b92915050565b600060ff821660ff810361138357611383611325565b60010192915050565b60006020828403121561139e57600080fd5b8151611305816112c6565b6000815180845260005b818110156113cf576020818501810151868301820152016113b3565b5060006020828601015260207fffffffffffffffffffffffffffffffffffffffffffffffffffffffffffffffe0601f83011685010191505092915050565b60408152600061142060408301856113a9565b90508260208301529392505050565b60208152600061130560208301846113a956fe66616c73652c205f6c31426c6f636b4e756d203c3d206c617374426c6f636b4e756d66616c73652c205f6c31426c6f636b4e756d203e20636f6d6d69747465652e676574456e64696e67426c6f636b2829a264697066735822122066f2ac67bd695c00d9d6e4ebe04904e3c275acee7066350ff8febae86a32641764736f6c634300081500337374617274696e6720626c6f636b206973206c657373207468616e20626c6f636b206e756d6265722c20636f6d6d6974746565206861736e277420737461727465642c2063616e277420626520646570656767656446726f6d20636f6d6d69747465652c207265636f7264696e672070726963657320666f72202573a2646970667358221220796c0719554ae38c7fb824696316d5fce718591a232680d7ac9e5cacb705db9164736f6c63430008150033",
    "linkReferences": {}
  },
  "methodIdentifiers": {
    "addNewProvider(bytes32,uint256,uint8,uint8,bool)": "c72f3ed8",
    "depeggedProviders(address)": "a6fa7c35",
    "endingBlock()": "7b1f337d",
    "getEndingBlock()": "c305c918",
    "getOracleMetadata()": "1cf60669",
    "getPolicyAddress()": "192eda83",
    "getProviders()": "edc922a9",
    "isClosed()": "c2b6b58c",
    "isDepegged()": "5a0332a4",
    "l1TokenAddress()": "c4da27b7",
    "minProvidersForQuorum()": "6b8d3012",
    "owner()": "8da5cb5b",
    "policyId()": "ee89ef3a",
    "policyManager()": "ab3dbf3b",
    "providers(uint256)": "50f3fc81",
    "providersReportingDepeg()": "a3d6b9de",
    "recordPriceForProvider(address,uint256,uint256)": "fdea0b75",
    "recordProviderAsDepegged()": "30cff552",
    "renounceOwnership()": "715018a6",
    "setPolicy(address,uint256)": "e980f171",
    "startingBlock()": "d91c98d3",
    "symbol()": "95d89b41",
    "systemAddress()": "d3e848f1",
    "transferOwnership(address)": "f2fde38b"
  },
  "id": 47
}