{
  "abi": [
    {
      "inputs": [
        {
          "internalType": "address",
          "name": "_systemAddress",
          "type": "address"
        }
      ],
      "stateMutability": "nonpayable",
      "type": "constructor"
    },
    {
      "anonymous": false,
      "inputs": [
        {
          "indexed": true,
          "internalType": "address",
          "name": "previousOwner",
          "type": "address"
        },
        {
          "indexed": true,
          "internalType": "address",
          "name": "newOwner",
          "type": "address"
        }
      ],
      "name": "OwnershipTransferred",
      "type": "event"
    },
    {
      "anonymous": false,
      "inputs": [
        {
          "indexed": true,
          "internalType": "uint256",
          "name": "policyId",
          "type": "uint256"
        },
        {
          "indexed": true,
          "internalType": "uint256",
          "name": "blockNumber",
          "type": "uint256"
        },
        {
          "indexed": true,
          "internalType": "address",
          "name": "currencyInsured",
          "type": "address"
        },
        {
          "indexed": false,
          "internalType": "address",
          "name": "currencyInsurer",
          "type": "address"
        }
      ],
      "name": "PolicyCreated",
      "type": "event"
    },
    {
      "inputs": [
        {
          "internalType": "uint256",
          "name": "_policyId",
          "type": "uint256"
        }
      ],
      "name": "activatePolicy",
      "outputs": [],
      "stateMutability": "nonpayable",
      "type": "function"
    },
    {
      "inputs": [
        {
          "internalType": "uint256",
          "name": "_policyId",
          "type": "uint256"
        },
        {
          "internalType": "bytes32",
          "name": "_oracleType",
          "type": "bytes32"
        },
        {
          "internalType": "uint256",
          "name": "_depegTolerance",
          "type": "uint256"
        },
        {
          "internalType": "uint8",
          "name": "_minBlocksToSwitchStatus",
          "type": "uint8"
        },
        {
          "internalType": "uint8",
          "name": "_decimals",
          "type": "uint8"
        },
        {
          "internalType": "bool",
          "name": "_isOnChain",
          "type": "bool"
        }
      ],
      "name": "addNewProviderToCommittee",
      "outputs": [
        {
          "internalType": "address",
          "name": "",
          "type": "address"
        }
      ],
      "stateMutability": "nonpayable",
      "type": "function"
    },
    {
      "inputs": [
        {
          "internalType": "uint256",
          "name": "",
          "type": "uint256"
        },
        {
          "internalType": "address",
          "name": "",
          "type": "address"
        }
      ],
      "name": "amountAsInsured",
      "outputs": [
        {
          "internalType": "uint256",
          "name": "",
          "type": "uint256"
        }
      ],
      "stateMutability": "view",
      "type": "function"
    },
    {
      "inputs": [
        {
          "internalType": "uint256",
          "name": "",
          "type": "uint256"
        },
        {
          "internalType": "address",
          "name": "",
          "type": "address"
        }
      ],
      "name": "amountAsInsurer",
      "outputs": [
        {
          "internalType": "uint256",
          "name": "",
          "type": "uint256"
        }
      ],
      "stateMutability": "view",
      "type": "function"
    },
    {
      "inputs": [
        {
          "internalType": "uint256",
          "name": "",
          "type": "uint256"
        }
      ],
      "name": "assetWrapper",
      "outputs": [
        {
          "internalType": "contract PolicyWrapper",
          "name": "",
          "type": "address"
        }
      ],
      "stateMutability": "view",
      "type": "function"
    },
    {
      "inputs": [],
      "name": "blocksPerYear",
      "outputs": [
        {
          "internalType": "uint256",
          "name": "",
          "type": "uint256"
        }
      ],
      "stateMutability": "view",
      "type": "function"
    },
    {
      "inputs": [
        {
          "internalType": "uint256",
          "name": "",
          "type": "uint256"
        }
      ],
      "name": "collateralWrapper",
      "outputs": [
        {
          "internalType": "contract PolicyWrapper",
          "name": "",
          "type": "address"
        }
      ],
      "stateMutability": "view",
      "type": "function"
    },
    {
      "inputs": [
        {
          "internalType": "uint256",
          "name": "blockNumber",
          "type": "uint256"
        },
        {
          "internalType": "address",
          "name": "currencyInsured",
          "type": "address"
        },
        {
          "internalType": "address",
          "name": "currencyInsurer",
          "type": "address"
        },
        {
          "internalType": "uint256",
          "name": "_policyPremiumPCT",
          "type": "uint256"
        }
      ],
      "name": "createPolicy",
      "outputs": [
        {
          "internalType": "uint256",
          "name": "",
          "type": "uint256"
        }
      ],
      "stateMutability": "nonpayable",
      "type": "function"
    },
    {
      "inputs": [
        {
          "internalType": "uint256",
          "name": "_policyId",
          "type": "uint256"
        }
      ],
      "name": "depegEndPolicy",
      "outputs": [],
      "stateMutability": "nonpayable",
      "type": "function"
    },
    {
      "inputs": [
        {
          "internalType": "uint256",
          "name": "",
          "type": "uint256"
        },
        {
          "internalType": "uint256",
          "name": "",
          "type": "uint256"
        }
      ],
      "name": "fifoInsured",
      "outputs": [
        {
          "internalType": "address",
          "name": "",
          "type": "address"
        }
      ],
      "stateMutability": "view",
      "type": "function"
    },
    {
      "inputs": [
        {
          "internalType": "uint256",
          "name": "",
          "type": "uint256"
        },
        {
          "internalType": "uint256",
          "name": "",
          "type": "uint256"
        }
      ],
      "name": "fifoInsurer",
      "outputs": [
        {
          "internalType": "address",
          "name": "",
          "type": "address"
        }
      ],
      "stateMutability": "view",
      "type": "function"
    },
    {
      "inputs": [],
      "name": "getSystemAddress",
      "outputs": [
        {
          "internalType": "address",
          "name": "",
          "type": "address"
        }
      ],
      "stateMutability": "view",
      "type": "function"
    },
    {
      "inputs": [],
      "name": "owner",
      "outputs": [
        {
          "internalType": "address",
          "name": "",
          "type": "address"
        }
      ],
      "stateMutability": "view",
      "type": "function"
    },
    {
      "inputs": [
        {
          "internalType": "uint256",
          "name": "",
          "type": "uint256"
        }
      ],
      "name": "policyAsset",
      "outputs": [
        {
          "internalType": "address",
          "name": "",
          "type": "address"
        }
      ],
      "stateMutability": "view",
      "type": "function"
    },
    {
      "inputs": [
        {
          "internalType": "uint256",
          "name": "",
          "type": "uint256"
        }
      ],
      "name": "policyAssetSymbolBytes32",
      "outputs": [
        {
          "internalType": "bytes32",
          "name": "",
          "type": "bytes32"
        }
      ],
      "stateMutability": "view",
      "type": "function"
    },
    {
      "inputs": [
        {
          "internalType": "uint256",
          "name": "",
          "type": "uint256"
        }
      ],
      "name": "policyBlock",
      "outputs": [
        {
          "internalType": "uint256",
          "name": "",
          "type": "uint256"
        }
      ],
      "stateMutability": "view",
      "type": "function"
    },
    {
      "inputs": [
        {
          "internalType": "uint256",
          "name": "",
          "type": "uint256"
        }
      ],
      "name": "policyCollateral",
      "outputs": [
        {
          "internalType": "address",
          "name": "",
          "type": "address"
        }
      ],
      "stateMutability": "view",
      "type": "function"
    },
    {
      "inputs": [],
      "name": "policyCounter",
      "outputs": [
        {
          "internalType": "uint256",
          "name": "",
          "type": "uint256"
        }
      ],
      "stateMutability": "view",
      "type": "function"
    },
    {
      "inputs": [
        {
          "internalType": "uint256",
          "name": "",
          "type": "uint256"
        },
        {
          "internalType": "address",
          "name": "",
          "type": "address"
        },
        {
          "internalType": "address",
          "name": "",
          "type": "address"
        }
      ],
      "name": "policyId",
      "outputs": [
        {
          "internalType": "uint256",
          "name": "",
          "type": "uint256"
        }
      ],
      "stateMutability": "view",
      "type": "function"
    },
    {
      "inputs": [
        {
          "internalType": "uint256",
          "name": "",
          "type": "uint256"
        }
      ],
      "name": "policyOracleCommittee",
      "outputs": [
        {
          "internalType": "contract IOracleCommittee",
          "name": "",
          "type": "address"
        }
      ],
      "stateMutability": "view",
      "type": "function"
    },
    {
      "inputs": [
        {
          "internalType": "uint256",
          "name": "",
          "type": "uint256"
        }
      ],
      "name": "policyPremiumPCT",
      "outputs": [
        {
          "internalType": "uint256",
          "name": "",
          "type": "uint256"
        }
      ],
      "stateMutability": "view",
      "type": "function"
    },
    {
      "inputs": [
        {
          "internalType": "uint256",
          "name": "_policyId",
          "type": "uint256"
        },
        {
          "internalType": "address",
          "name": "_provider",
          "type": "address"
        },
        {
          "internalType": "uint256",
          "name": "_l1BlockNum",
          "type": "uint256"
        },
        {
          "internalType": "uint256",
          "name": "_price",
          "type": "uint256"
        }
      ],
      "name": "recordPriceForCommittee",
      "outputs": [],
      "stateMutability": "nonpayable",
      "type": "function"
    },
    {
      "inputs": [],
      "name": "renounceOwnership",
      "outputs": [],
      "stateMutability": "nonpayable",
      "type": "function"
    },
    {
      "inputs": [
        {
          "internalType": "uint256",
          "name": "_policyId",
          "type": "uint256"
        },
        {
          "internalType": "address",
          "name": "_oracleCommittee",
          "type": "address"
        }
      ],
      "name": "setOracleCommittee",
      "outputs": [],
      "stateMutability": "nonpayable",
      "type": "function"
    },
    {
      "inputs": [
        {
          "internalType": "uint256",
          "name": "_policyId",
          "type": "uint256"
        },
        {
          "internalType": "uint256",
          "name": "amount",
          "type": "uint256"
        }
      ],
      "name": "subscribeAsInsured",
      "outputs": [],
      "stateMutability": "nonpayable",
      "type": "function"
    },
    {
      "inputs": [
        {
          "internalType": "uint256",
          "name": "_policyId",
          "type": "uint256"
        },
        {
          "internalType": "uint256",
          "name": "amount",
          "type": "uint256"
        }
      ],
      "name": "subscribeAsInsurer",
      "outputs": [],
      "stateMutability": "nonpayable",
      "type": "function"
    },
    {
      "inputs": [],
      "name": "subscribeMinimum",
      "outputs": [
        {
          "internalType": "uint256",
          "name": "",
          "type": "uint256"
        }
      ],
      "stateMutability": "view",
      "type": "function"
    },
    {
      "inputs": [],
      "name": "systemAddress",
      "outputs": [
        {
          "internalType": "address",
          "name": "",
          "type": "address"
        }
      ],
      "stateMutability": "view",
      "type": "function"
    },
    {
      "inputs": [
        {
          "internalType": "address",
          "name": "newOwner",
          "type": "address"
        }
      ],
      "name": "transferOwnership",
      "outputs": [],
      "stateMutability": "nonpayable",
      "type": "function"
    },
    {
      "inputs": [
        {
          "internalType": "uint256",
          "name": "_policyId",
          "type": "uint256"
        },
        {
          "internalType": "uint256",
          "name": "amount",
          "type": "uint256"
        }
      ],
      "name": "withdrawAsInsured",
      "outputs": [],
      "stateMutability": "nonpayable",
      "type": "function"
    },
    {
      "inputs": [
        {
          "internalType": "uint256",
          "name": "_policyId",
          "type": "uint256"
        },
        {
          "internalType": "uint256",
          "name": "amount",
          "type": "uint256"
        }
      ],
      "name": "withdrawAsInsurer",
      "outputs": [],
      "stateMutability": "nonpayable",
      "type": "function"
    }
  ],
  "bytecode": {
    "object": "0x60806040526000600255600a6003556227ac406004553480156200002257600080fd5b5060405162004659380380620046598339810160408190526200004591620000b9565b620000503362000069565b50600180546001600160a01b03191633179055620000eb565b600080546001600160a01b038381166001600160a01b0319831681178455604051919092169283917f8be0079c531659141344cd1fd0a4f28419497f9722a3daafe3b4186f6b6457e09190a35050565b600060208284031215620000cc57600080fd5b81516001600160a01b0381168114620000e457600080fd5b9392505050565b61455e80620000fb6000396000f3fe60806040523480156200001157600080fd5b5060043610620001c95760003560e01c806392edb5141162000103578063d3e848f1116200009e578063d3e848f11462000476578063d52c1bea146200048a578063e34a729d1462000494578063eb66031514620004c0578063f18e767914620004ee578063f2fde38b1462000505578063f6d22111146200051c578063f8d0f6ee146200053357600080fd5b806392edb5141462000380578063a385fb961462000397578063a3ff45a714620003a1578063a443eba114620003cd578063a487271f14620003e4578063a7d34cf414620003fb578063c534b28f1462000427578063c67e9d5b146200045357600080fd5b8063715018a61162000174578063715018a614620002bc57806376a7e61f14620002c6578063860fa56514620002f4578063871ae93a14620002fe5780638812264b14620003155780638da5cb5b14620003385780638dd3848f146200034257806390ad1290146200035457600080fd5b80631ab145b414620001ce5780632235cbf814620001f857806328dec72d146200021e57806332c0c19a14620002525780635d77fea5146200027557806362963dfa146200028c5780636371201714620002a5575b600080fd5b620001e5620001df366004620028e2565b6200054a565b6040519081526020015b60405180910390f35b6200020f6200020936600462002955565b62000a7c565b604051620001ef9190620029bf565b620001e56200022f366004620029d3565b600560209081526000938452604080852082529284528284209052825290205481565b620001e56200026336600462002a1a565b60076020526000908152604090205481565b6200020f6200028636600462002a34565b62000bca565b620002a36200029d36600462002a34565b62000c03565b005b620002a3620002b636600462002a57565b62000cb6565b620002a362000e2d565b620001e5620002d736600462002a97565b601160209081526000928352604080842090915290825290205481565b620001e560035481565b620002a36200030f36600462002a1a565b62000e45565b620001e56200032636600462002a1a565b600b6020526000908152604090205481565b6200020f62000e97565b6001546001600160a01b03166200020f565b6200020f6200036536600462002a1a565b600a602052600090815260409020546001600160a01b031681565b620002a36200039136600462002a34565b62000ea6565b620001e560045481565b6200020f620003b236600462002a1a565b600d602052600090815260409020546001600160a01b031681565b620002a3620003de36600462002a34565b62000f59565b620002a3620003f536600462002a34565b62001013565b6200020f6200040c36600462002a1a565b6009602052600090815260409020546001600160a01b031681565b6200020f6200043836600462002a1a565b600c602052600090815260409020546001600160a01b031681565b620001e56200046436600462002a1a565b60086020526000908152604090205481565b6001546200020f906001600160a01b031681565b620001e560025481565b6200020f620004a536600462002a1a565b6006602052600090815260409020546001600160a01b031681565b620001e5620004d136600462002a97565b600e60209081526000928352604080842090915290825290205481565b620002a3620004ff36600462002a1a565b620010eb565b620002a36200051636600462002aca565b620016c5565b6200020f6200052d36600462002a34565b62001744565b620002a36200054436600462002a97565b62001761565b60006200055662001800565b6200058a6040518060400160405280601181526020017023b2ba3a34b7339039bcb6b137b617171760791b81525062001863565b60006200059785620018aa565b9050620005c66040518060400160405280600a81526020016911dbdd081cde5b589bdb60b21b81525062001863565b604051620005d490620028be565b604051809103906000f080158015620005f1573d6000803e3d6000fd5b50600280546000908152600c602052604080822080546001600160a01b0319166001600160a01b039586161790559154815220541663c47f00276200063687620019a0565b620006418962001a76565b6040516020016200065492919062002b10565b6040516020818303038152906040526040518263ffffffff1660e01b815260040162000681919062002b5d565b600060405180830381600087803b1580156200069c57600080fd5b505af1158015620006b1573d6000803e3d6000fd5b50506002546000908152600c60205260409020546001600160a01b0316915063b84c8246905082620006e38962001a76565b604051602001620006f692919062002b92565b6040516020818303038152906040526040518263ffffffff1660e01b815260040162000723919062002b5d565b600060405180830381600087803b1580156200073e57600080fd5b505af115801562000753573d6000803e3d6000fd5b505050506040516200076590620028be565b604051809103906000f08015801562000782573d6000803e3d6000fd5b50600280546000908152600d602052604080822080546001600160a01b0319166001600160a01b039586161790559154815220541663c47f0027620007c786620019a0565b620007d28962001a76565b604051602001620007e592919062002bd5565b6040516020818303038152906040526040518263ffffffff1660e01b815260040162000812919062002b5d565b600060405180830381600087803b1580156200082d57600080fd5b505af115801562000842573d6000803e3d6000fd5b50506002546000908152600d60205260409020546001600160a01b0316915063b84c824690506200087386620018aa565b6200087e8962001a76565b6040516020016200089192919062002bf3565b6040516020818303038152906040526040518263ffffffff1660e01b8152600401620008be919062002b5d565b600060405180830381600087803b158015620008d957600080fd5b505af1158015620008ee573d6000803e3d6000fd5b5050505062000926604051806040016040528060118152602001702237b732903bb4ba341039ba30b93a32b960791b81525062001863565b6002805460008881526005602090815260408083206001600160a01b038b8116808652918452828520908b168086529084528285208690559484526007835281842089905585548452600883528184208c9055855484526009835281842080546001600160a01b031990811690921790558683015186548552600b84528285205585548452600a9092528220805490911690921790915581549190620009cc8362002c27565b9190505550846001600160a01b0316866001600254620009ed919062002c43565b7fe60608e7414a82a83506fbbbc5febd195d6676cc16409831603c86c2382a5da68760405162000a1e9190620029bf565b60405180910390a462000a616040518060400160405280601881526020017746696e6973686564206372656174696e6720706f6c69637960401b81525062001863565b600160025462000a72919062002c43565b9695505050505050565b60008681526006602052604081205487906001600160a01b031662000abe5760405162461bcd60e51b815260040162000ab59062002c59565b60405180910390fd5b8762000ac962000e97565b6001600160a01b0316336001600160a01b0316148062000aff57506000818152600660205260409020546001600160a01b031633145b62000b1e5760405162461bcd60e51b815260040162000ab59062002c8b565b600089815260066020526040908190205490516318e5e7db60e31b8152600481018a90526024810189905260ff80891660448301528716606482015285151560848201526001600160a01b039091169063c72f3ed89060a4016020604051808303816000875af115801562000b97573d6000803e3d6000fd5b505050506040513d601f19601f8201168201806040525081019062000bbd919062002cde565b9998505050505050505050565b6012602052816000526040600020818154811062000be757600080fd5b6000918252602090912001546001600160a01b03169150829050565b6000828152600960205260408120546001600160a01b03169062000c278262001b10565b62000c3490600a62002dfb565b60035490915062000c46828562002e09565b101562000c675760405162461bcd60e51b815260040162000ab59062002e2c565b50506000828152600e602090815260408083203380855290835281842094909455938252600f8152928120805460018101825590825292902090910180546001600160a01b0319169091179055565b8362000cc162000e97565b6001600160a01b0316336001600160a01b0316148062000cf757506000818152600660205260409020546001600160a01b031633145b62000d165760405162461bcd60e51b815260040162000ab59062002c8b565b6000858152600660205260409081902054905163fdea0b7560e01b81526001600160a01b03868116600483015260248201869052604482018590529091169063fdea0b7590606401600060405180830381600087803b15801562000d7957600080fd5b505af192505050801562000d8b575060015b62000e265762000d9a62002e5b565b806308c379a00362000e1a575062000db162002ebe565b8062000dbe575062000e1c565b60405162461bcd60e51b815260206004820152602a60248201527f636175676874206572726f72207265636f7264696e6720707269636520666f7260448201526920636f6d6d697474656560b01b606482015260840162000ab5565b505b3d6000803e3d6000fd5b5050505050565b62000e3762001800565b62000e43600062001bff565b565b60008181526006602052604090205481906001600160a01b031662000e7e5760405162461bcd60e51b815260040162000ab59062002c59565b62000e8862001800565b62000e938262001c4f565b5050565b6000546001600160a01b031690565b6000828152600a60205260408120546001600160a01b03169062000eca8262001b10565b62000ed790600a62002dfb565b60035490915062000ee9828562002e09565b101562000f0a5760405162461bcd60e51b815260040162000ab59062002e2c565b50506000828152601160209081526040808320338085529083528184209490945593825260128152928120805460018101825590825292902090910180546001600160a01b0319169091179055565b6000828152600c602052604090205462000f7d906001600160a01b03168262001e90565b600082815260096020908152604080832054600c90925291829020549151632770a7eb60e21b81526001600160a01b039182169290911690639dc29fac9062000fcd903390869060040162002f4e565b600060405180830381600087803b15801562000fe857600080fd5b505af115801562000ffd573d6000803e3d6000fd5b505050506200100e81338462001f4e565b505050565b6004546000838152600860205260409020544391620010329162002f67565b10620010775760405162461bcd60e51b8152602060048201526013602482015272506f6c696379207374696c6c2061637469766560681b604482015260640162000ab5565b6000828152600d60205260409020546200109b906001600160a01b03168262001e90565b6000828152600a6020908152604080832054600d90925291829020549151632770a7eb60e21b81526001600160a01b039182169290911690639dc29fac9062000fcd903390869060040162002f4e565b60008181526006602052604090205481906001600160a01b0316620011245760405162461bcd60e51b815260040162000ab59062002c59565b816200112f62000e97565b6001600160a01b0316336001600160a01b031614806200116557506000818152600660205260409020546001600160a01b031633145b620011845760405162461bcd60e51b815260040162000ab59062002c8b565b600083815260096020908152604080832054600a835281842054600c845282852054600d909452918420546001600160a01b0391821694928216938216929116905b826001600160a01b03166383aedf9c6040518163ffffffff1660e01b8152600401602060405180830381865afa15801562001205573d6000803e3d6000fd5b505050506040513d601f19601f820116820180604052508101906200122b919062002f7d565b811015620013aa57604051630b6e243f60e31b8152600481018290526000906001600160a01b03851690635b7121f890602401602060405180830381865afa1580156200127c573d6000803e3d6000fd5b505050506040513d601f19601f82011682018060405250810190620012a2919062002cde565b90506000846001600160a01b03166370a08231836040518263ffffffff1660e01b8152600401620012d49190620029bf565b602060405180830381865afa158015620012f2573d6000803e3d6000fd5b505050506040513d601f19601f8201168201806040525081019062001318919062002f7d565b905080156200139257604051632770a7eb60e21b81526001600160a01b03861690639dc29fac9062001351908590859060040162002f4e565b600060405180830381600087803b1580156200136c57600080fd5b505af115801562001381573d6000803e3d6000fd5b505050506200139286838362001f4e565b50508080620013a19062002c27565b915050620011c6565b5060005b816001600160a01b03166383aedf9c6040518163ffffffff1660e01b8152600401602060405180830381865afa158015620013ed573d6000803e3d6000fd5b505050506040513d601f19601f8201168201806040525081019062001413919062002f7d565b811015620016bb57604051630b6e243f60e31b8152600481018290526000906001600160a01b03841690635b7121f890602401602060405180830381865afa15801562001464573d6000803e3d6000fd5b505050506040513d601f19601f820116820180604052508101906200148a919062002cde565b90506000836001600160a01b03166370a08231836040518263ffffffff1660e01b8152600401620014bc9190620029bf565b602060405180830381865afa158015620014da573d6000803e3d6000fd5b505050506040513d601f19601f8201168201806040525081019062001500919062002f7d565b9050600062001510873062002049565b90508115620016a257801562001631578082118015620015b957604051632770a7eb60e21b81526001600160a01b03871690639dc29fac906200155a908790879060040162002f4e565b600060405180830381600087803b1580156200157557600080fd5b505af11580156200158a573d6000803e3d6000fd5b505050506200159b88858462001f4e565b620015b38985620015ad858762002c43565b62001f4e565b6200162a565b604051632770a7eb60e21b81526001600160a01b03871690639dc29fac90620015e9908790879060040162002f4e565b600060405180830381600087803b1580156200160457600080fd5b505af115801562001619573d6000803e3d6000fd5b505050506200162a88858562001f4e565b50620016a2565b604051632770a7eb60e21b81526001600160a01b03861690639dc29fac9062001661908690869060040162002f4e565b600060405180830381600087803b1580156200167c57600080fd5b505af115801562001691573d6000803e3d6000fd5b50505050620016a288848462001f4e565b5050508080620016b29062002c27565b915050620013ae565b5050505050505050565b620016cf62001800565b6001600160a01b038116620017365760405162461bcd60e51b815260206004820152602660248201527f4f776e61626c653a206e6577206f776e657220697320746865207a65726f206160448201526564647265737360d01b606482015260840162000ab5565b620017418162001bff565b50565b600f602052816000526040600020818154811062000be757600080fd5b6200176b62001800565b6000828152600660205260409020546001600160a01b031615620017d25760405162461bcd60e51b815260206004820152601c60248201527f4f7261636c6520636f6d6d697474656520616c72656164792073657400000000604482015260640162000ab5565b60009182526006602052604090912080546001600160a01b0319166001600160a01b03909216919091179055565b336200180b62000e97565b6001600160a01b03161462000e435760405162461bcd60e51b815260206004820181905260248201527f4f776e61626c653a2063616c6c6572206973206e6f7420746865206f776e6572604482015260640162000ab5565b62001741816040516024016200187a919062002b5d565b60408051601f198184030181529190526020810180516001600160e01b031663104c13eb60e21b17905262002164565b60408051600481526024810182526020810180516001600160e01b03166395d89b4160e01b179052905160609160009182916001600160a01b03861691620018f3919062002f97565b6000604051808303816000865af19150503d806000811462001932576040519150601f19603f3d011682016040523d82523d6000602084013e62001937565b606091505b509150915081620019825760405162461bcd60e51b8152602060048201526014602482015273115c9c9bdc8819d95d1d1a5b99c81cde5b589bdb60621b604482015260640162000ab5565b8080602001905181019062001998919062002fb5565b949350505050565b60408051600481526024810182526020810180516001600160e01b03166306fdde0360e01b179052905160609160009182916001600160a01b03861691620019e9919062002f97565b6000604051808303816000865af19150503d806000811462001a28576040519150601f19603f3d011682016040523d82523d6000602084013e62001a2d565b606091505b509150915081620019825760405162461bcd60e51b81526020600482015260126024820152714572726f722067657474696e67206e616d6560701b604482015260640162000ab5565b6060600062001a858362002185565b600101905060008167ffffffffffffffff81111562001aa85762001aa862002e78565b6040519080825280601f01601f19166020018201604052801562001ad3576020820181803683370190505b5090508181016020015b600019016f181899199a1a9b1b9c1cb0b131b232b360811b600a86061a8153600a850494508462001add57509392505050565b60408051600481526024810182526020810180516001600160e01b031663313ce56760e01b1790529051600091829182916001600160a01b0386169162001b58919062002f97565b6000604051808303816000865af19150503d806000811462001b97576040519150601f19603f3d011682016040523d82523d6000602084013e62001b9c565b606091505b50915091508162001be95760405162461bcd60e51b81526020600482015260166024820152754572726f722067657474696e6720646563696d616c7360501b604482015260640162000ab5565b8080602001905181019062001998919062002f7d565b600080546001600160a01b038381166001600160a01b0319831681178455604051919092169283917f8be0079c531659141344cd1fd0a4f28419497f9722a3daafe3b4186f6b6457e09190a35050565b6000818152600f6020908152604080832060109092528220548154811062001c7b5762001c7b62003058565b6000918252602080832090910154848352600e825260408084206001600160a01b0390921680855291909252908220549092509062001cbb848462002264565b6000858152601260209081526040808320601390925282205481549394509192909190811062001cef5762001cef62003058565b60009182526020808320909101548783526011825260408084206001600160a01b0390921680855291909252908220549092509062001d328685896001620022a6565b801562001d49575062001d498383896000620022a6565b9050818514801562001d585750805b1562001daf5762001d6c8684878a620023f1565b600087815260106020526040812080549162001d888362002c27565b9091555050600087815260136020526040812080549162001da98362002c27565b91905055505b818510801562001dbc5750805b1562001df25762001dd08684878a620023f1565b600087815260106020526040812080549162001dec8362002c27565b91905055505b848210801562001dff5750805b1562001e355762001e138684848a620023f1565b600087815260136020526040812080549162001e2f8362002c27565b91905055505b60008781526012602090815260408083205460139092529091205410801562001e7657506000878152600f6020908152604080832054601090925290912054105b1562001e875762001e878762000e45565b50505050505050565b6040516370a0823160e01b81526000906001600160a01b038416906370a082319062001ec1903390600401620029bf565b602060405180830381865afa15801562001edf573d6000803e3d6000fd5b505050506040513d601f19601f8201168201806040525081019062001f05919062002f7d565b9050818110156200100e5760405162461bcd60e51b81526020600482015260126024820152714e6f7420656e6f7567682062616c616e636560701b604482015260640162000ab5565b600080846001600160a01b031663a9059cbb60e01b858560405160240162001f7892919062002f4e565b60408051601f198184030181529181526020820180516001600160e01b03166001600160e01b031990941693909317909252905162001fb8919062002f97565b6000604051808303816000865af19150503d806000811462001ff7576040519150601f19603f3d011682016040523d82523d6000602084013e62001ffc565b606091505b50915091508180156200202a5750805115806200202a5750808060200190518101906200202a91906200306e565b62000e265760405162461bcd60e51b815260040162000ab5906200308e565b6000806000846001600160a01b03166370a0823160e01b85604051602401620020739190620029bf565b60408051601f198184030181529181526020820180516001600160e01b03166001600160e01b0319909416939093179092529051620020b3919062002f97565b6000604051808303816000865af19150503d8060008114620020f2576040519150601f19603f3d011682016040523d82523d6000602084013e620020f7565b606091505b509150915081620021435760405162461bcd60e51b81526020600482015260156024820152744572726f722067657474696e672062616c616e636560581b604482015260640162000ab5565b8080602001905181019062002159919062002f7d565b925050505b92915050565b80516a636f6e736f6c652e6c6f67602083016000808483855afa5050505050565b60008072184f03e93ff9f4daa797ed6e38ed64bf6a1f0160401b8310620021c55772184f03e93ff9f4daa797ed6e38ed64bf6a1f0160401b830492506040015b6d04ee2d6d415b85acef81000000008310620021f2576d04ee2d6d415b85acef8100000000830492506020015b662386f26fc1000083106200221157662386f26fc10000830492506010015b6305f5e10083106200222a576305f5e100830492506008015b61271083106200223f57612710830492506004015b6064831062002252576064830492506002015b600a83106200215e5760010192915050565b6000828152600e602090815260408083206001600160a01b038516845290915281205462002293848462002686565b6200229f919062002f67565b9392505050565b6000808083620022ce576000858152600a60205260409020546001600160a01b0316620022e7565b6000858152600960205260409020546001600160a01b03165b90506000620022f78289620026cb565b9050868110156200235257841562002330576000868152601060205260408120805491620023258362002c27565b919050555062002352565b60008681526013602052604081208054916200234c8362002c27565b91905055505b600062002360838a62002049565b90508781108015620023725750878210155b15620023c8578515620023a65760008781526010602052604081208054916200239b8362002c27565b9190505550620023c8565b6000878152601360205260408120805491620023c28362002c27565b91905055505b878110158015620023d95750878210155b15620023e457600193505b5091979650505050505050565b600081815260096020908152604080832054600a8352818420546007909352908320546001600160a01b03918216939190921691606490620024349087620030ab565b62002440919062002e09565b6000858152600e602090815260408083206001600160a01b038c168452909152902054909150851115620024885760405162461bcd60e51b815260040162000ab590620030c5565b60008481526011602090815260408083206001600160a01b038a168452909152902054851115620024cd5760405162461bcd60e51b815260040162000ab590620030c5565b6000848152600e602090815260408083206001600160a01b038b168452909152902054620024fd90869062002c43565b6000858152600e602090815260408083206001600160a01b03808d1685529083528184209490945587835260118252808320938a16835292905220546200254690869062002c43565b60008581526011602090815260408083206001600160a01b038b1684529091529020556200257783883088620027bf565b6200258583888884620027bf565b6200259382873088620027bf565b6000848152600c6020526040908190205490516340c10f1960e01b81526001600160a01b03909116906340c10f1990620025d4908a90899060040162002f4e565b600060405180830381600087803b158015620025ef57600080fd5b505af115801562002604573d6000803e3d6000fd5b5050506000858152600d6020526040908190205490516340c10f1960e01b81526001600160a01b0390911691506340c10f199062002649908990899060040162002f4e565b600060405180830381600087803b1580156200266457600080fd5b505af115801562002679573d6000803e3d6000fd5b5050505050505050505050565b600082815260076020908152604080832054600e83528184206001600160a01b0386168552909252822054606491620026bf91620030ab565b6200229f919062002e09565b604080516001600160a01b0383811660248301523060448084019190915283518084039091018152606490920183526020820180516001600160e01b0316636eb1769f60e11b179052915160009283928392918716916200272d919062002f97565b6000604051808303816000865af19150503d80600081146200276c576040519150601f19603f3d011682016040523d82523d6000602084013e62002771565b606091505b509150915081620021435760405162461bcd60e51b81526020600482015260176024820152764572726f722067657474696e6720616c6c6f77616e636560481b604482015260640162000ab5565b604080516001600160a01b0385811660248301528481166044830152606480830185905283518084039091018152608490920183526020820180516001600160e01b03166323b872dd60e01b179052915160009283929088169162002825919062002f97565b6000604051808303816000865af19150503d806000811462002864576040519150601f19603f3d011682016040523d82523d6000602084013e62002869565b606091505b509150915081801562002897575080511580620028975750808060200190518101906200289791906200306e565b620028b65760405162461bcd60e51b815260040162000ab5906200308e565b505050505050565b61143180620030f883390190565b6001600160a01b03811681146200174157600080fd5b60008060008060808587031215620028f957600080fd5b8435935060208501356200290d81620028cc565b925060408501356200291f81620028cc565b9396929550929360600135925050565b803560ff811681146200294157600080fd5b919050565b80151581146200174157600080fd5b60008060008060008060c087890312156200296f57600080fd5b8635955060208701359450604087013593506200298f606088016200292f565b92506200299f608088016200292f565b915060a0870135620029b18162002946565b809150509295509295509295565b6001600160a01b0391909116815260200190565b600080600060608486031215620029e957600080fd5b833592506020840135620029fd81620028cc565b9150604084013562002a0f81620028cc565b809150509250925092565b60006020828403121562002a2d57600080fd5b5035919050565b6000806040838503121562002a4857600080fd5b50508035926020909101359150565b6000806000806080858703121562002a6e57600080fd5b84359350602085013562002a8281620028cc565b93969395505050506040820135916060013590565b6000806040838503121562002aab57600080fd5b82359150602083013562002abf81620028cc565b809150509250929050565b60006020828403121562002add57600080fd5b81356200229f81620028cc565b60005b8381101562002b0757818101518382015260200162002aed565b50506000910152565b606960f81b81526000835162002b2e81600185016020880162002aea565b602d60f81b600191840191820152835162002b5181600284016020880162002aea565b01600201949350505050565b602081526000825180602084015262002b7e81604085016020870162002aea565b601f01601f19169190910160400192915050565b606960f81b81526000835162002bb081600185016020880162002aea565b83519083019062002bc981600184016020880162002aea565b01600101949350505050565b606360f81b81526000835162002b2e81600185016020880162002aea565b606360f81b81526000835162002bb081600185016020880162002aea565b634e487b7160e01b600052601160045260246000fd5b60006001820162002c3c5762002c3c62002c11565b5060010190565b818103818111156200215e576200215e62002c11565b60208082526018908201527713dc9858db194818dbdb5b5a5d1d1959481b9bdd081cd95d60421b604082015260600190565b60208082526033908201527f4f6e6c792073797374656d2061646472657373206f72206f776e65722063616e6040820152721031b0b636103a3434b990333ab731ba34b7b760691b606082015260800190565b60006020828403121562002cf157600080fd5b81516200229f81620028cc565b600181815b8085111562002d3f57816000190482111562002d235762002d2362002c11565b8085161562002d3157918102915b93841c939080029062002d03565b509250929050565b60008262002d58575060016200215e565b8162002d67575060006200215e565b816001811462002d80576002811462002d8b5762002dab565b60019150506200215e565b60ff84111562002d9f5762002d9f62002c11565b50506001821b6200215e565b5060208310610133831016604e8410600b841016171562002dd0575081810a6200215e565b62002ddc838362002cfe565b806000190482111562002df35762002df362002c11565b029392505050565b60006200229f838362002d47565b60008262002e2757634e487b7160e01b600052601260045260246000fd5b500490565b602080825260159082015274135a5b9a5b5d5b481b9bdd081cdd5898dc9a589959605a1b604082015260600190565b600060033d111562002e755760046000803e5060005160e01c5b90565b634e487b7160e01b600052604160045260246000fd5b601f8201601f1916810167ffffffffffffffff8111828210171562002eb75762002eb762002e78565b6040525050565b600060443d101562002ecd5790565b6040516003193d81016004833e81513d67ffffffffffffffff816024840111818411171562002efe57505050505090565b828501915081518181111562002f175750505050505090565b843d870101602082850101111562002f325750505050505090565b62002f436020828601018762002e8e565b509095945050505050565b6001600160a01b03929092168252602082015260400190565b808201808211156200215e576200215e62002c11565b60006020828403121562002f9057600080fd5b5051919050565b6000825162002fab81846020870162002aea565b9190910192915050565b60006020828403121562002fc857600080fd5b815167ffffffffffffffff8082111562002fe157600080fd5b818401915084601f83011262002ff657600080fd5b8151818111156200300b576200300b62002e78565b604051915062003026601f8201601f19166020018362002e8e565b8082528560208285010111156200303c57600080fd5b6200304f81602084016020860162002aea565b50949350505050565b634e487b7160e01b600052603260045260246000fd5b6000602082840312156200308157600080fd5b81516200229f8162002946565b60208082526003908201526229aa2360e91b604082015260600190565b80820281158282048414176200215e576200215e62002c11565b60208082526018908201527720b6b7bab73a1037bb32b91039bab139b1b934b83a34b7b760411b60408201526060019056fe60e06040523480156200001157600080fd5b506040518060400160405280600981526020016804d6f636b45524332360bc1b81525060405180604001604052806005815260200164045524332360dc1b8152506012826000908162000065919062000236565b50600162000074838262000236565b5060ff81166080524660a0526200008a620000a3565b60c052506200009d91503390506200013f565b62000380565b60007f8b73c3c69bb8fe3d512ecc4cf759cc79239f7b179b0ffacaa9a75d522b39400f6000604051620000d7919062000302565b6040805191829003822060208301939093528101919091527fc89efdaa54c0f20c7adf612882df0950f5a951637e0307cdcb4c672f298b8bc660608201524660808201523060a082015260c00160405160208183030381529060405280519060200120905090565b600680546001600160a01b038381166001600160a01b0319831681179093556040519116919082907f8be0079c531659141344cd1fd0a4f28419497f9722a3daafe3b4186f6b6457e090600090a35050565b634e487b7160e01b600052604160045260246000fd5b600181811c90821680620001bc57607f821691505b602082108103620001dd57634e487b7160e01b600052602260045260246000fd5b50919050565b601f8211156200023157600081815260208120601f850160051c810160208610156200020c5750805b601f850160051c820191505b818110156200022d5782815560010162000218565b5050505b505050565b81516001600160401b0381111562000252576200025262000191565b6200026a81620002638454620001a7565b84620001e3565b602080601f831160018114620002a25760008415620002895750858301515b600019600386901b1c1916600185901b1785556200022d565b600085815260208120601f198616915b82811015620002d357888601518255948401946001909101908401620002b2565b5085821015620002f25787850151600019600388901b60f8161c191681555b5050505050600190811b01905550565b60008083546200031281620001a7565b600182811680156200032d5760018114620003435762000374565b60ff198416875282151583028701945062000374565b8760005260208060002060005b858110156200036b5781548a82015290840190820162000350565b50505082870194505b50929695505050505050565b60805160a05160c051611081620003b060003960006105600152600061052b015260006101b701526110816000f3fe608060405234801561001057600080fd5b50600436106101425760003560e01c806383aedf9c116100b8578063a9059cbb1161007c578063a9059cbb146102c2578063b84c8246146102d5578063c47f0027146102e8578063d505accf146102fb578063dd62ed3e1461030e578063f2fde38b1461033957600080fd5b806383aedf9c1461027b5780638623ec7b146102835780638da5cb5b1461029657806395d89b41146102a75780639dc29fac146102af57600080fd5b80633644e5151161010a5780633644e515146101eb57806340c10f19146101f35780635b7121f81461020857806370a0823114610233578063715018a6146102535780637ecebe001461025b57600080fd5b806306fdde0314610147578063095ea7b31461016557806318160ddd1461018857806323b872dd1461019f578063313ce567146101b2575b600080fd5b61014f61034c565b60405161015c9190610be6565b60405180910390f35b610178610173366004610c4b565b6103da565b604051901515815260200161015c565b61019160025481565b60405190815260200161015c565b6101786101ad366004610c75565b610447565b6101d97f000000000000000000000000000000000000000000000000000000000000000081565b60405160ff909116815260200161015c565b610191610527565b610206610201366004610c4b565b610582565b005b61021b610216366004610cb1565b6105e7565b6040516001600160a01b03909116815260200161015c565b610191610241366004610cca565b60036020526000908152604090205481565b610206610621565b610191610269366004610cca565b60056020526000908152604090205481565b610191610635565b61021b610291366004610cb1565b610646565b6006546001600160a01b031661021b565b61014f610670565b6102066102bd366004610c4b565b61067d565b6101786102d0366004610c4b565b610693565b6102066102e3366004610cec565b6106f9565b6102066102f6366004610cec565b610713565b610206610309366004610d5e565b610728565b61019161031c366004610dd1565b600460209081526000928352604080842090915290825290205481565b610206610347366004610cca565b61096b565b6000805461035990610e04565b80601f016020809104026020016040519081016040528092919081815260200182805461038590610e04565b80156103d25780601f106103a7576101008083540402835291602001916103d2565b820191906000526020600020905b8154815290600101906020018083116103b557829003601f168201915b505050505081565b3360008181526004602090815260408083206001600160a01b038716808552925280832085905551919290917f8c5be1e5ebec7d5bd14f71427d1e84f3dd0314c0f7b2291e5b200ac8c7c3b925906104359086815260200190565b60405180910390a35060015b92915050565b6001600160a01b038316600090815260046020908152604080832033845290915281205460001981146104a35761047e8382610e54565b6001600160a01b03861660009081526004602090815260408083203384529091529020555b6001600160a01b038516600090815260036020526040812080548592906104cb908490610e54565b90915550506001600160a01b038085166000818152600360205260409081902080548701905551909187169060008051602061102c833981519152906105149087815260200190565b60405180910390a3506001949350505050565b60007f0000000000000000000000000000000000000000000000000000000000000000461461055d576105586109e4565b905090565b507f000000000000000000000000000000000000000000000000000000000000000090565b61058a610a7e565b6105948282610ad8565b50600780546001810182556000919091527fa66cc928b5edb82af9bd49922954155ab7b0942694bea4ce44661d9a8736c6880180546001600160a01b0319166001600160a01b0392909216919091179055565b60006105f1610a7e565b6007828154811061060457610604610e67565b6000918252602090912001546001600160a01b031690505b919050565b610629610a7e565b6106336000610b32565b565b600061063f610a7e565b5060075490565b6007818154811061065657600080fd5b6000918252602090912001546001600160a01b0316905081565b6001805461035990610e04565b610685610a7e565b61068f8282610b84565b5050565b336000908152600360205260408120805483919083906106b4908490610e54565b90915550506001600160a01b0383166000818152600360205260409081902080548501905551339060008051602061102c833981519152906104359086815260200190565b610701610a7e565b600161070e828483610ee1565b505050565b61071b610a7e565b600061070e828483610ee1565b428410156107775760405162461bcd60e51b815260206004820152601760248201527614115493525517d11150511312539157d1561412549151604a1b60448201526064015b60405180910390fd5b60006001610783610527565b6001600160a01b038a811660008181526005602090815260409182902080546001810190915582517f6e71edae12b1b97f4d1f60370fef10105fa2faae0126114a169c64845d6126c98184015280840194909452938d166060840152608083018c905260a083019390935260c08083018b90528151808403909101815260e08301909152805192019190912061190160f01b6101008301526101028201929092526101228101919091526101420160408051601f198184030181528282528051602091820120600084529083018083525260ff871690820152606081018590526080810184905260a0016020604051602081039080840390855afa15801561088f573d6000803e3d6000fd5b5050604051601f1901519150506001600160a01b038116158015906108c55750876001600160a01b0316816001600160a01b0316145b6109025760405162461bcd60e51b815260206004820152600e60248201526d24a72b20a624a22fa9a4a3a722a960911b604482015260640161076e565b6001600160a01b0390811660009081526004602090815260408083208a8516808552908352928190208990555188815291928a16917f8c5be1e5ebec7d5bd14f71427d1e84f3dd0314c0f7b2291e5b200ac8c7c3b925910160405180910390a350505050505050565b610973610a7e565b6001600160a01b0381166109d85760405162461bcd60e51b815260206004820152602660248201527f4f776e61626c653a206e6577206f776e657220697320746865207a65726f206160448201526564647265737360d01b606482015260840161076e565b6109e181610b32565b50565b60007f8b73c3c69bb8fe3d512ecc4cf759cc79239f7b179b0ffacaa9a75d522b39400f6000604051610a169190610fa2565b6040805191829003822060208301939093528101919091527fc89efdaa54c0f20c7adf612882df0950f5a951637e0307cdcb4c672f298b8bc660608201524660808201523060a082015260c00160405160208183030381529060405280519060200120905090565b6006546001600160a01b031633146106335760405162461bcd60e51b815260206004820181905260248201527f4f776e61626c653a2063616c6c6572206973206e6f7420746865206f776e6572604482015260640161076e565b8060026000828254610aea9190611018565b90915550506001600160a01b03821660008181526003602090815260408083208054860190555184815260008051602061102c83398151915291015b60405180910390a35050565b600680546001600160a01b038381166001600160a01b0319831681179093556040519116919082907f8be0079c531659141344cd1fd0a4f28419497f9722a3daafe3b4186f6b6457e090600090a35050565b6001600160a01b03821660009081526003602052604081208054839290610bac908490610e54565b90915550506002805482900390556040518181526000906001600160a01b0384169060008051602061102c83398151915290602001610b26565b600060208083528351808285015260005b81811015610c1357858101830151858201604001528201610bf7565b506000604082860101526040601f19601f8301168501019250505092915050565b80356001600160a01b038116811461061c57600080fd5b60008060408385031215610c5e57600080fd5b610c6783610c34565b946020939093013593505050565b600080600060608486031215610c8a57600080fd5b610c9384610c34565b9250610ca160208501610c34565b9150604084013590509250925092565b600060208284031215610cc357600080fd5b5035919050565b600060208284031215610cdc57600080fd5b610ce582610c34565b9392505050565b60008060208385031215610cff57600080fd5b823567ffffffffffffffff80821115610d1757600080fd5b818501915085601f830112610d2b57600080fd5b813581811115610d3a57600080fd5b866020828501011115610d4c57600080fd5b60209290920196919550909350505050565b600080600080600080600060e0888a031215610d7957600080fd5b610d8288610c34565b9650610d9060208901610c34565b95506040880135945060608801359350608088013560ff81168114610db457600080fd5b9699959850939692959460a0840135945060c09093013592915050565b60008060408385031215610de457600080fd5b610ded83610c34565b9150610dfb60208401610c34565b90509250929050565b600181811c90821680610e1857607f821691505b602082108103610e3857634e487b7160e01b600052602260045260246000fd5b50919050565b634e487b7160e01b600052601160045260246000fd5b8181038181111561044157610441610e3e565b634e487b7160e01b600052603260045260246000fd5b634e487b7160e01b600052604160045260246000fd5b601f82111561070e57600081815260208120601f850160051c81016020861015610eba5750805b601f850160051c820191505b81811015610ed957828155600101610ec6565b505050505050565b67ffffffffffffffff831115610ef957610ef9610e7d565b610f0d83610f078354610e04565b83610e93565b6000601f841160018114610f415760008515610f295750838201355b600019600387901b1c1916600186901b178355610f9b565b600083815260209020601f19861690835b82811015610f725786850135825560209485019460019092019101610f52565b5086821015610f8f5760001960f88860031b161c19848701351681555b505060018560011b0183555b5050505050565b6000808354610fb081610e04565b60018281168015610fc85760018114610fdd5761100c565b60ff198416875282151583028701945061100c565b8760005260208060002060005b858110156110035781548a820152908401908201610fea565b50505082870194505b50929695505050505050565b8082018082111561044157610441610e3e56feddf252ad1be2c89b69c2b068fc378daa952ba7f163c4a11628f55a4df523b3efa26469706673582212200338710659a68f4d99d995f916b62d045e08294dfe270616255ded55c35dc3bc64736f6c63430008150033a2646970667358221220ca7dd7b0294e9c1064d579610caf809da0bd26f6f394a53f6fb3f178cd75eee364736f6c63430008150033",
    "linkReferences": {}
  },
  "methodIdentifiers": {
    "activatePolicy(uint256)": "871ae93a",
    "addNewProviderToCommittee(uint256,bytes32,uint256,uint8,uint8,bool)": "2235cbf8",
    "amountAsInsured(uint256,address)": "eb660315",
    "amountAsInsurer(uint256,address)": "76a7e61f",
    "assetWrapper(uint256)": "c534b28f",
    "blocksPerYear()": "a385fb96",
    "collateralWrapper(uint256)": "a3ff45a7",
    "createPolicy(uint256,address,address,uint256)": "1ab145b4",
    "depegEndPolicy(uint256)": "f18e7679",
    "fifoInsured(uint256,uint256)": "f6d22111",
    "fifoInsurer(uint256,uint256)": "5d77fea5",
    "getSystemAddress()": "8dd3848f",
    "owner()": "8da5cb5b",
    "policyAsset(uint256)": "a7d34cf4",
    "policyAssetSymbolBytes32(uint256)": "8812264b",
    "policyBlock(uint256)": "c67e9d5b",
    "policyCollateral(uint256)": "90ad1290",
    "policyCounter()": "d52c1bea",
    "policyId(uint256,address,address)": "28dec72d",
    "policyOracleCommittee(uint256)": "e34a729d",
    "policyPremiumPCT(uint256)": "32c0c19a",
    "recordPriceForCommittee(uint256,address,uint256,uint256)": "63712017",
    "renounceOwnership()": "715018a6",
    "setOracleCommittee(uint256,address)": "f8d0f6ee",
    "subscribeAsInsured(uint256,uint256)": "62963dfa",
    "subscribeAsInsurer(uint256,uint256)": "92edb514",
    "subscribeMinimum()": "860fa565",
    "systemAddress()": "d3e848f1",
    "transferOwnership(address)": "f2fde38b",
    "withdrawAsInsured(uint256,uint256)": "a443eba1",
    "withdrawAsInsurer(uint256,uint256)": "a487271f"
  },
  "id": 32
}