{
  "abi": [
    {
      "inputs": [
        {
          "internalType": "address",
          "name": "_systemAddress",
          "type": "address"
        }
      ],
      "stateMutability": "nonpayable",
      "type": "constructor"
    },
    {
      "anonymous": false,
      "inputs": [
        {
          "indexed": true,
          "internalType": "address",
          "name": "previousOwner",
          "type": "address"
        },
        {
          "indexed": true,
          "internalType": "address",
          "name": "newOwner",
          "type": "address"
        }
      ],
      "name": "OwnershipTransferred",
      "type": "event"
    },
    {
      "anonymous": false,
      "inputs": [
        {
          "indexed": true,
          "internalType": "uint256",
          "name": "policyId",
          "type": "uint256"
        },
        {
          "indexed": true,
          "internalType": "uint256",
          "name": "blockNumber",
          "type": "uint256"
        },
        {
          "indexed": true,
          "internalType": "address",
          "name": "currencyInsured",
          "type": "address"
        },
        {
          "indexed": false,
          "internalType": "address",
          "name": "currencyInsurer",
          "type": "address"
        }
      ],
      "name": "PolicyCreated",
      "type": "event"
    },
    {
      "inputs": [
        {
          "internalType": "uint256",
          "name": "_policyId",
          "type": "uint256"
        }
      ],
      "name": "activatePolicy",
      "outputs": [],
      "stateMutability": "nonpayable",
      "type": "function"
    },
    {
      "inputs": [
        {
          "internalType": "uint256",
          "name": "_policyId",
          "type": "uint256"
        },
        {
          "internalType": "bytes32",
          "name": "_oracleType",
          "type": "bytes32"
        },
        {
          "internalType": "uint256",
          "name": "_depegTolerance",
          "type": "uint256"
        },
        {
          "internalType": "uint8",
          "name": "_minBlocksToSwitchStatus",
          "type": "uint8"
        },
        {
          "internalType": "uint8",
          "name": "_decimals",
          "type": "uint8"
        },
        {
          "internalType": "bool",
          "name": "_isOnChain",
          "type": "bool"
        }
      ],
      "name": "addNewProviderToCommittee",
      "outputs": [
        {
          "internalType": "address",
          "name": "",
          "type": "address"
        }
      ],
      "stateMutability": "nonpayable",
      "type": "function"
    },
    {
      "inputs": [
        {
          "internalType": "uint256",
          "name": "",
          "type": "uint256"
        },
        {
          "internalType": "address",
          "name": "",
          "type": "address"
        }
      ],
      "name": "amountAsInsured",
      "outputs": [
        {
          "internalType": "uint256",
          "name": "",
          "type": "uint256"
        }
      ],
      "stateMutability": "view",
      "type": "function"
    },
    {
      "inputs": [
        {
          "internalType": "uint256",
          "name": "",
          "type": "uint256"
        },
        {
          "internalType": "address",
          "name": "",
          "type": "address"
        }
      ],
      "name": "amountAsInsurer",
      "outputs": [
        {
          "internalType": "uint256",
          "name": "",
          "type": "uint256"
        }
      ],
      "stateMutability": "view",
      "type": "function"
    },
    {
      "inputs": [
        {
          "internalType": "uint256",
          "name": "",
          "type": "uint256"
        }
      ],
      "name": "assetWrapper",
      "outputs": [
        {
          "internalType": "contract PolicyWrapper",
          "name": "",
          "type": "address"
        }
      ],
      "stateMutability": "view",
      "type": "function"
    },
    {
      "inputs": [],
      "name": "blocksPerYear",
      "outputs": [
        {
          "internalType": "uint256",
          "name": "",
          "type": "uint256"
        }
      ],
      "stateMutability": "view",
      "type": "function"
    },
    {
      "inputs": [
        {
          "internalType": "uint256",
          "name": "",
          "type": "uint256"
        }
      ],
      "name": "collateralWrapper",
      "outputs": [
        {
          "internalType": "contract PolicyWrapper",
          "name": "",
          "type": "address"
        }
      ],
      "stateMutability": "view",
      "type": "function"
    },
    {
      "inputs": [
        {
          "internalType": "uint256",
          "name": "blockNumber",
          "type": "uint256"
        },
        {
          "internalType": "address",
          "name": "currencyInsured",
          "type": "address"
        },
        {
          "internalType": "address",
          "name": "currencyInsurer",
          "type": "address"
        },
        {
          "internalType": "uint256",
          "name": "_policyPremiumPCT",
          "type": "uint256"
        }
      ],
      "name": "createPolicy",
      "outputs": [
        {
          "internalType": "uint256",
          "name": "",
          "type": "uint256"
        }
      ],
      "stateMutability": "nonpayable",
      "type": "function"
    },
    {
      "inputs": [
        {
          "internalType": "uint256",
          "name": "_policyId",
          "type": "uint256"
        }
      ],
      "name": "depegEndPolicy",
      "outputs": [],
      "stateMutability": "nonpayable",
      "type": "function"
    },
    {
      "inputs": [
        {
          "internalType": "uint256",
          "name": "",
          "type": "uint256"
        },
        {
          "internalType": "uint256",
          "name": "",
          "type": "uint256"
        }
      ],
      "name": "fifoInsured",
      "outputs": [
        {
          "internalType": "address",
          "name": "",
          "type": "address"
        }
      ],
      "stateMutability": "view",
      "type": "function"
    },
    {
      "inputs": [
        {
          "internalType": "uint256",
          "name": "",
          "type": "uint256"
        },
        {
          "internalType": "uint256",
          "name": "",
          "type": "uint256"
        }
      ],
      "name": "fifoInsurer",
      "outputs": [
        {
          "internalType": "address",
          "name": "",
          "type": "address"
        }
      ],
      "stateMutability": "view",
      "type": "function"
    },
    {
      "inputs": [],
      "name": "getAllPolicies",
      "outputs": [
        {
          "internalType": "uint256[]",
          "name": "",
          "type": "uint256[]"
        }
      ],
      "stateMutability": "view",
      "type": "function"
    },
    {
      "inputs": [
        {
          "internalType": "uint256",
          "name": "_policyId",
          "type": "uint256"
        }
      ],
      "name": "getMetadataForPolicy",
      "outputs": [
        {
          "components": [
            {
              "internalType": "uint256",
              "name": "policyId",
              "type": "uint256"
            },
            {
              "internalType": "uint256",
              "name": "premiumPCT",
              "type": "uint256"
            },
            {
              "internalType": "uint256",
              "name": "blockNumber",
              "type": "uint256"
            },
            {
              "internalType": "address",
              "name": "insuredTokenAddress",
              "type": "address"
            },
            {
              "internalType": "address",
              "name": "collateralTokenAddress",
              "type": "address"
            },
            {
              "internalType": "address",
              "name": "oracleCommitteeAddress",
              "type": "address"
            },
            {
              "internalType": "bool",
              "name": "activated",
              "type": "bool"
            }
          ],
          "internalType": "struct PolicyManager.OnlyTheMostRelevantPolicyMetadata",
          "name": "",
          "type": "tuple"
        }
      ],
      "stateMutability": "view",
      "type": "function"
    },
    {
      "inputs": [
        {
          "internalType": "uint256",
          "name": "_policyId",
          "type": "uint256"
        }
      ],
      "name": "getOracleCommitteeAddress",
      "outputs": [
        {
          "internalType": "address",
          "name": "",
          "type": "address"
        }
      ],
      "stateMutability": "view",
      "type": "function"
    },
    {
      "inputs": [],
      "name": "getSystemAddress",
      "outputs": [
        {
          "internalType": "address",
          "name": "",
          "type": "address"
        }
      ],
      "stateMutability": "view",
      "type": "function"
    },
    {
      "inputs": [],
      "name": "owner",
      "outputs": [
        {
          "internalType": "address",
          "name": "",
          "type": "address"
        }
      ],
      "stateMutability": "view",
      "type": "function"
    },
    {
      "inputs": [
        {
          "internalType": "uint256",
          "name": "",
          "type": "uint256"
        }
      ],
      "name": "policyAsset",
      "outputs": [
        {
          "internalType": "address",
          "name": "",
          "type": "address"
        }
      ],
      "stateMutability": "view",
      "type": "function"
    },
    {
      "inputs": [
        {
          "internalType": "uint256",
          "name": "",
          "type": "uint256"
        }
      ],
      "name": "policyAssetSymbolBytes32",
      "outputs": [
        {
          "internalType": "bytes32",
          "name": "",
          "type": "bytes32"
        }
      ],
      "stateMutability": "view",
      "type": "function"
    },
    {
      "inputs": [
        {
          "internalType": "uint256",
          "name": "",
          "type": "uint256"
        }
      ],
      "name": "policyBlock",
      "outputs": [
        {
          "internalType": "uint256",
          "name": "",
          "type": "uint256"
        }
      ],
      "stateMutability": "view",
      "type": "function"
    },
    {
      "inputs": [
        {
          "internalType": "uint256",
          "name": "",
          "type": "uint256"
        }
      ],
      "name": "policyCollateral",
      "outputs": [
        {
          "internalType": "address",
          "name": "",
          "type": "address"
        }
      ],
      "stateMutability": "view",
      "type": "function"
    },
    {
      "inputs": [],
      "name": "policyCounter",
      "outputs": [
        {
          "internalType": "uint256",
          "name": "",
          "type": "uint256"
        }
      ],
      "stateMutability": "view",
      "type": "function"
    },
    {
      "inputs": [
        {
          "internalType": "uint256",
          "name": "",
          "type": "uint256"
        },
        {
          "internalType": "address",
          "name": "",
          "type": "address"
        },
        {
          "internalType": "address",
          "name": "",
          "type": "address"
        }
      ],
      "name": "policyId",
      "outputs": [
        {
          "internalType": "uint256",
          "name": "",
          "type": "uint256"
        }
      ],
      "stateMutability": "view",
      "type": "function"
    },
    {
      "inputs": [
        {
          "internalType": "uint256",
          "name": "",
          "type": "uint256"
        }
      ],
      "name": "policyOracleCommittee",
      "outputs": [
        {
          "internalType": "contract IOracleCommittee",
          "name": "",
          "type": "address"
        }
      ],
      "stateMutability": "view",
      "type": "function"
    },
    {
      "inputs": [
        {
          "internalType": "uint256",
          "name": "",
          "type": "uint256"
        }
      ],
      "name": "policyPremiumPCT",
      "outputs": [
        {
          "internalType": "uint256",
          "name": "",
          "type": "uint256"
        }
      ],
      "stateMutability": "view",
      "type": "function"
    },
    {
      "inputs": [
        {
          "internalType": "uint256",
          "name": "_policyId",
          "type": "uint256"
        },
        {
          "internalType": "address",
          "name": "_provider",
          "type": "address"
        },
        {
          "internalType": "uint256",
          "name": "_l1BlockNum",
          "type": "uint256"
        },
        {
          "internalType": "uint256",
          "name": "_price",
          "type": "uint256"
        }
      ],
      "name": "recordPriceForCommittee",
      "outputs": [],
      "stateMutability": "nonpayable",
      "type": "function"
    },
    {
      "inputs": [],
      "name": "renounceOwnership",
      "outputs": [],
      "stateMutability": "nonpayable",
      "type": "function"
    },
    {
      "inputs": [
        {
          "internalType": "uint256",
          "name": "_policyId",
          "type": "uint256"
        },
        {
          "internalType": "address",
          "name": "_oracleCommittee",
          "type": "address"
        }
      ],
      "name": "setOracleCommittee",
      "outputs": [],
      "stateMutability": "nonpayable",
      "type": "function"
    },
    {
      "inputs": [
        {
          "internalType": "uint256",
          "name": "_policyId",
          "type": "uint256"
        },
        {
          "internalType": "uint256",
          "name": "amount",
          "type": "uint256"
        }
      ],
      "name": "subscribeAsInsured",
      "outputs": [],
      "stateMutability": "nonpayable",
      "type": "function"
    },
    {
      "inputs": [
        {
          "internalType": "uint256",
          "name": "_policyId",
          "type": "uint256"
        },
        {
          "internalType": "uint256",
          "name": "amount",
          "type": "uint256"
        }
      ],
      "name": "subscribeAsInsurer",
      "outputs": [],
      "stateMutability": "nonpayable",
      "type": "function"
    },
    {
      "inputs": [],
      "name": "subscribeMinimum",
      "outputs": [
        {
          "internalType": "uint256",
          "name": "",
          "type": "uint256"
        }
      ],
      "stateMutability": "view",
      "type": "function"
    },
    {
      "inputs": [],
      "name": "systemAddress",
      "outputs": [
        {
          "internalType": "address",
          "name": "",
          "type": "address"
        }
      ],
      "stateMutability": "view",
      "type": "function"
    },
    {
      "inputs": [
        {
          "internalType": "address",
          "name": "newOwner",
          "type": "address"
        }
      ],
      "name": "transferOwnership",
      "outputs": [],
      "stateMutability": "nonpayable",
      "type": "function"
    },
    {
      "inputs": [
        {
          "internalType": "uint256",
          "name": "_policyId",
          "type": "uint256"
        },
        {
          "internalType": "uint256",
          "name": "amount",
          "type": "uint256"
        }
      ],
      "name": "withdrawAsInsured",
      "outputs": [],
      "stateMutability": "nonpayable",
      "type": "function"
    },
    {
      "inputs": [
        {
          "internalType": "uint256",
          "name": "_policyId",
          "type": "uint256"
        },
        {
          "internalType": "uint256",
          "name": "amount",
          "type": "uint256"
        }
      ],
      "name": "withdrawAsInsurer",
      "outputs": [],
      "stateMutability": "nonpayable",
      "type": "function"
    }
  ],
  "bytecode": {
    "object": "0x60806040526000600255600a6003556227ac406004553480156200002257600080fd5b5060405162005b2138038062005b218339810160408190526200004591620000b9565b620000503362000069565b50600180546001600160a01b03191633179055620000eb565b600080546001600160a01b038381166001600160a01b0319831681178455604051919092169283917f8be0079c531659141344cd1fd0a4f28419497f9722a3daafe3b4186f6b6457e09190a35050565b600060208284031215620000cc57600080fd5b81516001600160a01b0381168114620000e457600080fd5b9392505050565b615a2680620000fb6000396000f3fe60806040523480156200001157600080fd5b5060043610620002535760003560e01c8063a385fb961162000142578063d52c1bea11620000cc578063eb6603151162000097578063f2fde38b116200007a578063f2fde38b14620007bd578063f6d2211114620007d4578063f8d0f6ee14620007eb57600080fd5b8063eb6603151462000778578063f18e767914620007a657600080fd5b8063d52c1bea14620005a7578063e34a729d14620005b1578063e439233614620005ea578063e9f863dc146200062357600080fd5b8063a7d34cf4116200010d578063a7d34cf414620004f1578063c534b28f146200052a578063c67e9d5b1462000563578063d3e848f1146200058657600080fd5b8063a385fb961462000480578063a3ff45a7146200048a578063a443eba114620004c3578063a487271f14620004da57600080fd5b8063715018a611620001e15780638812264b11620001ac5780638dd3848f116200018f5780638dd3848f146200041157806390ad1290146200043057806392edb514146200046957600080fd5b80638812264b14620003cf5780638da5cb5b14620003f257600080fd5b8063715018a6146200037657806376a7e61f1462000380578063860fa56514620003ae578063871ae93a14620003b857600080fd5b8063457e55211162000222578063457e552114620003165780635d77fea5146200032f57806362963dfa146200034657806363712017146200035f57600080fd5b80631ab145b414620002585780632235cbf8146200028257806328dec72d14620002bf57806332c0c19a14620002f3575b600080fd5b6200026f620002693660046200390b565b62000802565b6040519081526020015b60405180910390f35b62000299620002933660046200397e565b62000e3c565b60405173ffffffffffffffffffffffffffffffffffffffff909116815260200162000279565b6200026f620002d0366004620039e8565b600560209081526000938452604080852082529284528284209052825290205481565b6200026f6200030436600462003a2f565b60076020526000908152604090205481565b62000320620010ad565b60405162000279919062003a49565b620002996200034036600462003a8f565b62001107565b6200035d6200035736600462003a8f565b6200114d565b005b6200035d6200037036600462003ab2565b6200126e565b6200035d620014e4565b6200026f6200039136600462003af2565b601160209081526000928352604080842090915290825290205481565b6200026f60035481565b6200035d620003c936600462003a2f565b620014fc565b6200026f620003e036600462003a2f565b600b6020526000908152604090205481565b60005473ffffffffffffffffffffffffffffffffffffffff1662000299565b60015473ffffffffffffffffffffffffffffffffffffffff1662000299565b620002996200044136600462003a2f565b600a6020526000908152604090205473ffffffffffffffffffffffffffffffffffffffff1681565b6200035d6200047a36600462003a8f565b620015a4565b6200026f60045481565b620002996200049b36600462003a2f565b600d6020526000908152604090205473ffffffffffffffffffffffffffffffffffffffff1681565b6200035d620004d436600462003a8f565b620016c5565b6200035d620004eb36600462003a8f565b620017b2565b620002996200050236600462003a2f565b60096020526000908152604090205473ffffffffffffffffffffffffffffffffffffffff1681565b620002996200053b36600462003a2f565b600c6020526000908152604090205473ffffffffffffffffffffffffffffffffffffffff1681565b6200026f6200057436600462003a2f565b60086020526000908152604090205481565b600154620002999073ffffffffffffffffffffffffffffffffffffffff1681565b6200026f60025481565b62000299620005c236600462003a2f565b60066020526000908152604090205473ffffffffffffffffffffffffffffffffffffffff1681565b62000299620005fb36600462003a2f565b60009081526006602052604090205473ffffffffffffffffffffffffffffffffffffffff1690565b620007016200063436600462003a2f565b6040805160e081018252600080825260208201819052918101829052606081018290526080810182905260a0810182905260c0810191909152506040805160e0810182528281526000838152600760209081528382205481840152848252600880825284832054848601819052868452600983528584205473ffffffffffffffffffffffffffffffffffffffff9081166060870152878552600a84528685205481166080870152878552600684529584205490951660a0850152949091529290925243101560c082015290565b604051620002799190600060e082019050825182526020830151602083015260408301516040830152606083015173ffffffffffffffffffffffffffffffffffffffff80821660608501528060808601511660808501528060a08601511660a0850152505060c0830151151560c083015292915050565b6200026f6200078936600462003af2565b600e60209081526000928352604080842090915290825290205481565b6200035d620007b736600462003a2f565b620018e6565b6200035d620007ce36600462003b25565b62002113565b62000299620007e536600462003a8f565b620021d0565b6200035d620007fc36600462003af2565b620021ed565b60006200080e620022d8565b6200084e6040518060400160405280601181526020017f47657474696e672073796d626f6c2e2e2e0000000000000000000000000000008152506200235b565b60006200085b85620023ee565b90506200089d6040518060400160405280600a81526020017f476f742073796d626f6c000000000000000000000000000000000000000000008152506200235b565b604051620008ab90620038da565b604051809103906000f080158015620008c8573d6000803e3d6000fd5b50600280546000908152600c602052604080822080547fffffffffffffffffffffffff00000000000000000000000000000000000000001673ffffffffffffffffffffffffffffffffffffffff9586161790559154815220541663c47f0027620009328762002542565b6200093d8962002678565b6040516020016200095092919062003b6b565b6040516020818303038152906040526040518263ffffffff1660e01b81526004016200097d919062003bf0565b600060405180830381600087803b1580156200099857600080fd5b505af1158015620009ad573d6000803e3d6000fd5b50506002546000908152600c602052604090205473ffffffffffffffffffffffffffffffffffffffff16915063b84c8246905082620009ec8962002678565b604051602001620009ff92919062003c43565b6040516020818303038152906040526040518263ffffffff1660e01b815260040162000a2c919062003bf0565b600060405180830381600087803b15801562000a4757600080fd5b505af115801562000a5c573d6000803e3d6000fd5b5050505060405162000a6e90620038da565b604051809103906000f08015801562000a8b573d6000803e3d6000fd5b50600280546000908152600d602052604080822080547fffffffffffffffffffffffff00000000000000000000000000000000000000001673ffffffffffffffffffffffffffffffffffffffff9586161790559154815220541663c47f002762000af58662002542565b62000b008962002678565b60405160200162000b1392919062003ca2565b6040516020818303038152906040526040518263ffffffff1660e01b815260040162000b40919062003bf0565b600060405180830381600087803b15801562000b5b57600080fd5b505af115801562000b70573d6000803e3d6000fd5b50506002546000908152600d602052604090205473ffffffffffffffffffffffffffffffffffffffff16915063b84c8246905062000bae86620023ee565b62000bb98962002678565b60405160200162000bcc92919062003cdc565b6040516020818303038152906040526040518263ffffffff1660e01b815260040162000bf9919062003bf0565b600060405180830381600087803b15801562000c1457600080fd5b505af115801562000c29573d6000803e3d6000fd5b5050505062000c6d6040518060400160405280601181526020017f446f6e65207769746820737461727465720000000000000000000000000000008152506200235b565b60028054600088815260056020908152604080832073ffffffffffffffffffffffffffffffffffffffff8b8116808652918452828520908b168086529084528285208690559484526007835281842089905585548452600883528184208c9055855484526009835281842080547fffffffffffffffffffffffff000000000000000000000000000000000000000090811690921790558683015186548552600b84528285205585548452600a909252822080549091169092179091558154601480546001810182559083527fce6d7b5282bd9a3661ae061feed1dbda4e52ab073b1f9285be6e155d9c38d4ec01819055919062000d6a8362003d45565b91905055508473ffffffffffffffffffffffffffffffffffffffff1686600160025462000d98919062003d80565b60405173ffffffffffffffffffffffffffffffffffffffff881681527fe60608e7414a82a83506fbbbc5febd195d6676cc16409831603c86c2382a5da69060200160405180910390a462000e216040518060400160405280601881526020017f46696e6973686564206372656174696e6720706f6c69637900000000000000008152506200235b565b600160025462000e32919062003d80565b9695505050505050565b600086815260066020526040812054879073ffffffffffffffffffffffffffffffffffffffff1662000ecf576040517f08c379a000000000000000000000000000000000000000000000000000000000815260206004820152601860248201527f4f7261636c6520636f6d6d6974746565206e6f7420736574000000000000000060448201526064015b60405180910390fd5b8762000ef060005473ffffffffffffffffffffffffffffffffffffffff1690565b73ffffffffffffffffffffffffffffffffffffffff163373ffffffffffffffffffffffffffffffffffffffff16148062000f4d575060008181526006602052604090205473ffffffffffffffffffffffffffffffffffffffff1633145b62000fdb576040517f08c379a000000000000000000000000000000000000000000000000000000000815260206004820152603360248201527f4f6e6c792073797374656d2061646472657373206f72206f776e65722063616e60448201527f2063616c6c20746869732066756e6374696f6e00000000000000000000000000606482015260840162000ec6565b600089815260066020526040908190205490517fc72f3ed8000000000000000000000000000000000000000000000000000000008152600481018a90526024810189905260ff808916604483015287166064820152851515608482015273ffffffffffffffffffffffffffffffffffffffff9091169063c72f3ed89060a4016020604051808303816000875af11580156200107a573d6000803e3d6000fd5b505050506040513d601f19601f82011682018060405250810190620010a0919062003d96565b9998505050505050505050565b60606014805480602002602001604051908101604052809291908181526020018280548015620010fd57602002820191906000526020600020905b815481526020019060010190808311620010e8575b5050505050905090565b601260205281600052604060002081815481106200112457600080fd5b60009182526020909120015473ffffffffffffffffffffffffffffffffffffffff169150829050565b60008281526009602052604081205473ffffffffffffffffffffffffffffffffffffffff16906200117e826200273d565b6200118b90600a62003eef565b6003549091506200119d828562003efd565b101562001207576040517f08c379a000000000000000000000000000000000000000000000000000000000815260206004820152601560248201527f4d696e696d756d206e6f74207375626372696265640000000000000000000000604482015260640162000ec6565b50506000828152600e602090815260408083203380855290835281842094909455938252600f8152928120805460018101825590825292902090910180547fffffffffffffffffffffffff0000000000000000000000000000000000000000169091179055565b836200128f60005473ffffffffffffffffffffffffffffffffffffffff1690565b73ffffffffffffffffffffffffffffffffffffffff163373ffffffffffffffffffffffffffffffffffffffff161480620012ec575060008181526006602052604090205473ffffffffffffffffffffffffffffffffffffffff1633145b6200137a576040517f08c379a000000000000000000000000000000000000000000000000000000000815260206004820152603360248201527f4f6e6c792073797374656d2061646472657373206f72206f776e65722063616e60448201527f2063616c6c20746869732066756e6374696f6e00000000000000000000000000606482015260840162000ec6565b600085815260066020526040908190205490517ffdea0b7500000000000000000000000000000000000000000000000000000000815273ffffffffffffffffffffffffffffffffffffffff868116600483015260248201869052604482018590529091169063fdea0b7590606401600060405180830381600087803b1580156200140357600080fd5b505af192505050801562001415575060015b620014dd576200142462003f39565b806308c379a003620014d157506200143b62003fd3565b80620014485750620014d3565b6040517f08c379a000000000000000000000000000000000000000000000000000000000815260206004820152602a60248201527f636175676874206572726f72207265636f7264696e6720707269636520666f7260448201527f20636f6d6d697474656500000000000000000000000000000000000000000000606482015260840162000ec6565b505b3d6000803e3d6000fd5b5050505050565b620014ee620022d8565b620014fa600062002888565b565b600081815260066020526040902054819073ffffffffffffffffffffffffffffffffffffffff166200158b576040517f08c379a000000000000000000000000000000000000000000000000000000000815260206004820152601860248201527f4f7261636c6520636f6d6d6974746565206e6f74207365740000000000000000604482015260640162000ec6565b62001595620022d8565b620015a082620028fd565b5050565b6000828152600a602052604081205473ffffffffffffffffffffffffffffffffffffffff1690620015d5826200273d565b620015e290600a62003eef565b600354909150620015f4828562003efd565b10156200165e576040517f08c379a000000000000000000000000000000000000000000000000000000000815260206004820152601560248201527f4d696e696d756d206e6f74207375626372696265640000000000000000000000604482015260640162000ec6565b50506000828152601160209081526040808320338085529083528184209490945593825260128152928120805460018101825590825292902090910180547fffffffffffffffffffffffff0000000000000000000000000000000000000000169091179055565b6000828152600c6020526040902054620016f69073ffffffffffffffffffffffffffffffffffffffff168262002b58565b600082815260096020908152604080832054600c909252918290205491517f9dc29fac0000000000000000000000000000000000000000000000000000000081523360048201526024810184905273ffffffffffffffffffffffffffffffffffffffff918216929190911690639dc29fac906044015b600060405180830381600087803b1580156200178757600080fd5b505af11580156200179c573d6000803e3d6000fd5b50505050620017ad81338462002c5a565b505050565b6004546000838152600860205260409020544391620017d19162004081565b106200183a576040517f08c379a000000000000000000000000000000000000000000000000000000000815260206004820152601360248201527f506f6c696379207374696c6c2061637469766500000000000000000000000000604482015260640162000ec6565b6000828152600d60205260409020546200186b9073ffffffffffffffffffffffffffffffffffffffff168262002b58565b6000828152600a6020908152604080832054600d909252918290205491517f9dc29fac0000000000000000000000000000000000000000000000000000000081523360048201526024810184905273ffffffffffffffffffffffffffffffffffffffff918216929190911690639dc29fac906044016200176c565b600081815260066020526040902054819073ffffffffffffffffffffffffffffffffffffffff1662001975576040517f08c379a000000000000000000000000000000000000000000000000000000000815260206004820152601860248201527f4f7261636c6520636f6d6d6974746565206e6f74207365740000000000000000604482015260640162000ec6565b816200199660005473ffffffffffffffffffffffffffffffffffffffff1690565b73ffffffffffffffffffffffffffffffffffffffff163373ffffffffffffffffffffffffffffffffffffffff161480620019f3575060008181526006602052604090205473ffffffffffffffffffffffffffffffffffffffff1633145b62001a81576040517f08c379a000000000000000000000000000000000000000000000000000000000815260206004820152603360248201527f4f6e6c792073797374656d2061646472657373206f72206f776e65722063616e60448201527f2063616c6c20746869732066756e6374696f6e00000000000000000000000000606482015260840162000ec6565b600083815260096020908152604080832054600a835281842054600c845282852054600d9094529184205473ffffffffffffffffffffffffffffffffffffffff91821694928216938216929116905b8273ffffffffffffffffffffffffffffffffffffffff166383aedf9c6040518163ffffffff1660e01b8152600401602060405180830381865afa15801562001b1c573d6000803e3d6000fd5b505050506040513d601f19601f8201168201806040525081019062001b42919062004097565b81101562001d30576040517f5b7121f80000000000000000000000000000000000000000000000000000000081526004810182905260009073ffffffffffffffffffffffffffffffffffffffff851690635b7121f890602401602060405180830381865afa15801562001bb9573d6000803e3d6000fd5b505050506040513d601f19601f8201168201806040525081019062001bdf919062003d96565b6040517f70a0823100000000000000000000000000000000000000000000000000000000815273ffffffffffffffffffffffffffffffffffffffff80831660048301529192506000918616906370a0823190602401602060405180830381865afa15801562001c52573d6000803e3d6000fd5b505050506040513d601f19601f8201168201806040525081019062001c78919062004097565b9050801562001d18576040517f9dc29fac00000000000000000000000000000000000000000000000000000000815273ffffffffffffffffffffffffffffffffffffffff838116600483015260248201839052861690639dc29fac90604401600060405180830381600087803b15801562001cf257600080fd5b505af115801562001d07573d6000803e3d6000fd5b5050505062001d1886838362002c5a565b5050808062001d279062003d45565b91505062001ad0565b5060005b8173ffffffffffffffffffffffffffffffffffffffff166383aedf9c6040518163ffffffff1660e01b8152600401602060405180830381865afa15801562001d80573d6000803e3d6000fd5b505050506040513d601f19601f8201168201806040525081019062001da6919062004097565b81101562002109576040517f5b7121f80000000000000000000000000000000000000000000000000000000081526004810182905260009073ffffffffffffffffffffffffffffffffffffffff841690635b7121f890602401602060405180830381865afa15801562001e1d573d6000803e3d6000fd5b505050506040513d601f19601f8201168201806040525081019062001e43919062003d96565b6040517f70a0823100000000000000000000000000000000000000000000000000000000815273ffffffffffffffffffffffffffffffffffffffff80831660048301529192506000918516906370a0823190602401602060405180830381865afa15801562001eb6573d6000803e3d6000fd5b505050506040513d601f19601f8201168201806040525081019062001edc919062004097565b9050600062001eec873062002dcd565b90508115620020f05780156200205957808211801562001fbb576040517f9dc29fac00000000000000000000000000000000000000000000000000000000815273ffffffffffffffffffffffffffffffffffffffff858116600483015260248201859052871690639dc29fac90604401600060405180830381600087803b15801562001f7757600080fd5b505af115801562001f8c573d6000803e3d6000fd5b5050505062001f9d88858462002c5a565b62001fb5898562001faf858762003d80565b62002c5a565b62002052565b6040517f9dc29fac00000000000000000000000000000000000000000000000000000000815273ffffffffffffffffffffffffffffffffffffffff858116600483015260248201859052871690639dc29fac90604401600060405180830381600087803b1580156200202c57600080fd5b505af115801562002041573d6000803e3d6000fd5b505050506200205288858562002c5a565b50620020f0565b6040517f9dc29fac00000000000000000000000000000000000000000000000000000000815273ffffffffffffffffffffffffffffffffffffffff848116600483015260248201849052861690639dc29fac90604401600060405180830381600087803b158015620020ca57600080fd5b505af1158015620020df573d6000803e3d6000fd5b50505050620020f088848462002c5a565b5050508080620021009062003d45565b91505062001d34565b5050505050505050565b6200211d620022d8565b73ffffffffffffffffffffffffffffffffffffffff8116620021c2576040517f08c379a000000000000000000000000000000000000000000000000000000000815260206004820152602660248201527f4f776e61626c653a206e6577206f776e657220697320746865207a65726f206160448201527f6464726573730000000000000000000000000000000000000000000000000000606482015260840162000ec6565b620021cd8162002888565b50565b600f60205281600052604060002081815481106200112457600080fd5b620021f7620022d8565b60008281526006602052604090205473ffffffffffffffffffffffffffffffffffffffff161562002285576040517f08c379a000000000000000000000000000000000000000000000000000000000815260206004820152601c60248201527f4f7261636c6520636f6d6d697474656520616c72656164792073657400000000604482015260640162000ec6565b60009182526006602052604090912080547fffffffffffffffffffffffff00000000000000000000000000000000000000001673ffffffffffffffffffffffffffffffffffffffff909216919091179055565b60005473ffffffffffffffffffffffffffffffffffffffff163314620014fa576040517f08c379a000000000000000000000000000000000000000000000000000000000815260206004820181905260248201527f4f776e61626c653a2063616c6c6572206973206e6f7420746865206f776e6572604482015260640162000ec6565b620021cd8160405160240162002372919062003bf0565b604080517fffffffffffffffffffffffffffffffffffffffffffffffffffffffffffffffe08184030181529190526020810180517bffffffffffffffffffffffffffffffffffffffffffffffffffffffff167f41304fac0000000000000000000000000000000000000000000000000000000017905262002f37565b60408051600481526024810182526020810180517bffffffffffffffffffffffffffffffffffffffffffffffffffffffff167f95d89b41000000000000000000000000000000000000000000000000000000001790529051606091600091829173ffffffffffffffffffffffffffffffffffffffff861691620024729190620040b1565b6000604051808303816000865af19150503d8060008114620024b1576040519150601f19603f3d011682016040523d82523d6000602084013e620024b6565b606091505b50915091508162002524576040517f08c379a000000000000000000000000000000000000000000000000000000000815260206004820152601460248201527f4572726f722067657474696e672073796d626f6c000000000000000000000000604482015260640162000ec6565b808060200190518101906200253a9190620040cf565b949350505050565b60408051600481526024810182526020810180517bffffffffffffffffffffffffffffffffffffffffffffffffffffffff167f06fdde03000000000000000000000000000000000000000000000000000000001790529051606091600091829173ffffffffffffffffffffffffffffffffffffffff861691620025c69190620040b1565b6000604051808303816000865af19150503d806000811462002605576040519150601f19603f3d011682016040523d82523d6000602084013e6200260a565b606091505b50915091508162002524576040517f08c379a000000000000000000000000000000000000000000000000000000000815260206004820152601260248201527f4572726f722067657474696e67206e616d650000000000000000000000000000604482015260640162000ec6565b60606000620026878362002f58565b600101905060008167ffffffffffffffff811115620026aa57620026aa62003f56565b6040519080825280601f01601f191660200182016040528015620026d5576020820181803683370190505b5090508181016020015b7fffffffffffffffffffffffffffffffffffffffffffffffffffffffffffffffff017f3031323334353637383961626364656600000000000000000000000000000000600a86061a8153600a8504945084620026df57509392505050565b60408051600481526024810182526020810180517bffffffffffffffffffffffffffffffffffffffffffffffffffffffff167f313ce5670000000000000000000000000000000000000000000000000000000017905290516000918291829173ffffffffffffffffffffffffffffffffffffffff861691620027c09190620040b1565b6000604051808303816000865af19150503d8060008114620027ff576040519150601f19603f3d011682016040523d82523d6000602084013e62002804565b606091505b50915091508162002872576040517f08c379a000000000000000000000000000000000000000000000000000000000815260206004820152601660248201527f4572726f722067657474696e6720646563696d616c7300000000000000000000604482015260640162000ec6565b808060200190518101906200253a919062004097565b6000805473ffffffffffffffffffffffffffffffffffffffff8381167fffffffffffffffffffffffff0000000000000000000000000000000000000000831681178455604051919092169283917f8be0079c531659141344cd1fd0a4f28419497f9722a3daafe3b4186f6b6457e09190a35050565b6000818152600f6020908152604080832060109092528220548154811062002929576200292962004190565b6000918252602080832090910154848352600e8252604080842073ffffffffffffffffffffffffffffffffffffffff90921680855291909252908220549092509062002976848462003041565b60008581526012602090815260408083206013909252822054815493945091929091908110620029aa57620029aa62004190565b600091825260208083209091015487835260118252604080842073ffffffffffffffffffffffffffffffffffffffff909216808552919092529082205490925090620029fa868589600162003090565b801562002a11575062002a11838389600062003090565b9050818514801562002a205750805b1562002a775762002a348684878a620031f5565b600087815260106020526040812080549162002a508362003d45565b9091555050600087815260136020526040812080549162002a718362003d45565b91905055505b818510801562002a845750805b1562002aba5762002a988684878a620031f5565b600087815260106020526040812080549162002ab48362003d45565b91905055505b848210801562002ac75750805b1562002afd5762002adb8684848a620031f5565b600087815260136020526040812080549162002af78362003d45565b91905055505b60008781526012602090815260408083205460139092529091205410801562002b3e57506000878152600f6020908152604080832054601090925290912054105b1562002b4f5762002b4f87620014fc565b50505050505050565b6040517f70a0823100000000000000000000000000000000000000000000000000000000815233600482015260009073ffffffffffffffffffffffffffffffffffffffff8416906370a0823190602401602060405180830381865afa15801562002bc6573d6000803e3d6000fd5b505050506040513d601f19601f8201168201806040525081019062002bec919062004097565b905081811015620017ad576040517f08c379a000000000000000000000000000000000000000000000000000000000815260206004820152601260248201527f4e6f7420656e6f7567682062616c616e63650000000000000000000000000000604482015260640162000ec6565b6040805173ffffffffffffffffffffffffffffffffffffffff8481166024830152604480830185905283518084039091018152606490920183526020820180517bffffffffffffffffffffffffffffffffffffffffffffffffffffffff167fa9059cbb00000000000000000000000000000000000000000000000000000000179052915160009283929087169162002cf39190620040b1565b6000604051808303816000865af19150503d806000811462002d32576040519150601f19603f3d011682016040523d82523d6000602084013e62002d37565b606091505b509150915081801562002d6557508051158062002d6557508080602001905181019062002d659190620041bf565b620014dd576040517f08c379a000000000000000000000000000000000000000000000000000000000815260206004820152600360248201527f5354460000000000000000000000000000000000000000000000000000000000604482015260640162000ec6565b6040805173ffffffffffffffffffffffffffffffffffffffff83811660248084019190915283518084039091018152604490920183526020820180517bffffffffffffffffffffffffffffffffffffffffffffffffffffffff167f70a08231000000000000000000000000000000000000000000000000000000001790529151600092839283929187169162002e649190620040b1565b6000604051808303816000865af19150503d806000811462002ea3576040519150601f19603f3d011682016040523d82523d6000602084013e62002ea8565b606091505b50915091508162002f16576040517f08c379a000000000000000000000000000000000000000000000000000000000815260206004820152601560248201527f4572726f722067657474696e672062616c616e63650000000000000000000000604482015260640162000ec6565b8080602001905181019062002f2c919062004097565b925050505b92915050565b80516a636f6e736f6c652e6c6f67602083016000808483855afa5050505050565b6000807a184f03e93ff9f4daa797ed6e38ed64bf6a1f010000000000000000831062002fa2577a184f03e93ff9f4daa797ed6e38ed64bf6a1f010000000000000000830492506040015b6d04ee2d6d415b85acef8100000000831062002fcf576d04ee2d6d415b85acef8100000000830492506020015b662386f26fc10000831062002fee57662386f26fc10000830492506010015b6305f5e100831062003007576305f5e100830492506008015b61271083106200301c57612710830492506004015b606483106200302f576064830492506002015b600a831062002f315760010192915050565b6000828152600e6020908152604080832073ffffffffffffffffffffffffffffffffffffffff851684529091528120546200307d8484620035b6565b62003089919062004081565b9392505050565b6000808083620030c5576000858152600a602052604090205473ffffffffffffffffffffffffffffffffffffffff16620030eb565b60008581526009602052604090205473ffffffffffffffffffffffffffffffffffffffff165b90506000620030fb828962003608565b9050868110156200315657841562003134576000868152601060205260408120805491620031298362003d45565b919050555062003156565b6000868152601360205260408120805491620031508362003d45565b91905055505b600062003164838a62002dcd565b90508781108015620031765750878210155b15620031cc578515620031aa5760008781526010602052604081208054916200319f8362003d45565b9190505550620031cc565b6000878152601360205260408120805491620031c68362003d45565b91905055505b878110158015620031dd5750878210155b15620031e857600193505b5091979650505050505050565b600081815260096020908152604080832054600a83528184205460079093529083205473ffffffffffffffffffffffffffffffffffffffff918216939190921691606490620032459087620041df565b62003251919062003efd565b6000858152600e6020908152604080832073ffffffffffffffffffffffffffffffffffffffff8c168452909152902054909150851115620032ef576040517f08c379a000000000000000000000000000000000000000000000000000000000815260206004820152601860248201527f416d6f756e74206f76657220737562736372697074696f6e0000000000000000604482015260640162000ec6565b600084815260116020908152604080832073ffffffffffffffffffffffffffffffffffffffff8a1684529091529020548511156200338a576040517f08c379a000000000000000000000000000000000000000000000000000000000815260206004820152601860248201527f416d6f756e74206f76657220737562736372697074696f6e0000000000000000604482015260640162000ec6565b6000848152600e6020908152604080832073ffffffffffffffffffffffffffffffffffffffff8b168452909152902054620033c790869062003d80565b6000858152600e6020908152604080832073ffffffffffffffffffffffffffffffffffffffff808d1685529083528184209490945587835260118252808320938a16835292905220546200341d90869062003d80565b600085815260116020908152604080832073ffffffffffffffffffffffffffffffffffffffff8b1684529091529020556200345b8388308862003757565b620034698388888462003757565b620034778287308862003757565b6000848152600c6020526040908190205490517f40c10f1900000000000000000000000000000000000000000000000000000000815273ffffffffffffffffffffffffffffffffffffffff898116600483015260248201889052909116906340c10f1990604401600060405180830381600087803b158015620034f957600080fd5b505af11580156200350e573d6000803e3d6000fd5b5050506000858152600d6020526040908190205490517f40c10f1900000000000000000000000000000000000000000000000000000000815273ffffffffffffffffffffffffffffffffffffffff89811660048301526024820189905290911691506340c10f1990604401600060405180830381600087803b1580156200359457600080fd5b505af1158015620035a9573d6000803e3d6000fd5b5050505050505050505050565b600082815260076020908152604080832054600e835281842073ffffffffffffffffffffffffffffffffffffffff86168552909252822054606491620035fc91620041df565b62003089919062003efd565b6040805173ffffffffffffffffffffffffffffffffffffffff83811660248301523060448084019190915283518084039091018152606490920183526020820180517bffffffffffffffffffffffffffffffffffffffffffffffffffffffff167fdd62ed3e0000000000000000000000000000000000000000000000000000000017905291516000928392839291871691620036a59190620040b1565b6000604051808303816000865af19150503d8060008114620036e4576040519150601f19603f3d011682016040523d82523d6000602084013e620036e9565b606091505b50915091508162002f16576040517f08c379a000000000000000000000000000000000000000000000000000000000815260206004820152601760248201527f4572726f722067657474696e6720616c6c6f77616e6365000000000000000000604482015260640162000ec6565b6040805173ffffffffffffffffffffffffffffffffffffffff85811660248301528481166044830152606480830185905283518084039091018152608490920183526020820180517bffffffffffffffffffffffffffffffffffffffffffffffffffffffff167f23b872dd000000000000000000000000000000000000000000000000000000001790529151600092839290881691620037f89190620040b1565b6000604051808303816000865af19150503d806000811462003837576040519150601f19603f3d011682016040523d82523d6000602084013e6200383c565b606091505b50915091508180156200386a5750805115806200386a5750808060200190518101906200386a9190620041bf565b620038d2576040517f08c379a000000000000000000000000000000000000000000000000000000000815260206004820152600360248201527f5354460000000000000000000000000000000000000000000000000000000000604482015260640162000ec6565b505050505050565b6117f780620041fa83390190565b73ffffffffffffffffffffffffffffffffffffffff81168114620021cd57600080fd5b600080600080608085870312156200392257600080fd5b8435935060208501356200393681620038e8565b925060408501356200394881620038e8565b9396929550929360600135925050565b803560ff811681146200396a57600080fd5b919050565b8015158114620021cd57600080fd5b60008060008060008060c087890312156200399857600080fd5b863595506020870135945060408701359350620039b86060880162003958565b9250620039c86080880162003958565b915060a0870135620039da816200396f565b809150509295509295509295565b600080600060608486031215620039fe57600080fd5b83359250602084013562003a1281620038e8565b9150604084013562003a2481620038e8565b809150509250925092565b60006020828403121562003a4257600080fd5b5035919050565b6020808252825182820181905260009190848201906040850190845b8181101562003a835783518352928401929184019160010162003a65565b50909695505050505050565b6000806040838503121562003aa357600080fd5b50508035926020909101359150565b6000806000806080858703121562003ac957600080fd5b84359350602085013562003add81620038e8565b93969395505050506040820135916060013590565b6000806040838503121562003b0657600080fd5b82359150602083013562003b1a81620038e8565b809150509250929050565b60006020828403121562003b3857600080fd5b81356200308981620038e8565b60005b8381101562003b6257818101518382015260200162003b48565b50506000910152565b7f690000000000000000000000000000000000000000000000000000000000000081526000835162003ba581600185016020880162003b45565b7f2d00000000000000000000000000000000000000000000000000000000000000600191840191820152835162003be481600284016020880162003b45565b01600201949350505050565b602081526000825180602084015262003c1181604085016020870162003b45565b601f017fffffffffffffffffffffffffffffffffffffffffffffffffffffffffffffffe0169190910160400192915050565b7f690000000000000000000000000000000000000000000000000000000000000081526000835162003c7d81600185016020880162003b45565b83519083019062003c9681600184016020880162003b45565b01600101949350505050565b7f630000000000000000000000000000000000000000000000000000000000000081526000835162003ba581600185016020880162003b45565b7f630000000000000000000000000000000000000000000000000000000000000081526000835162003c7d81600185016020880162003b45565b7f4e487b7100000000000000000000000000000000000000000000000000000000600052601160045260246000fd5b60007fffffffffffffffffffffffffffffffffffffffffffffffffffffffffffffffff820362003d795762003d7962003d16565b5060010190565b8181038181111562002f315762002f3162003d16565b60006020828403121562003da957600080fd5b81516200308981620038e8565b600181815b8085111562003e1557817fffffffffffffffffffffffffffffffffffffffffffffffffffffffffffffffff0482111562003df95762003df962003d16565b8085161562003e0757918102915b93841c939080029062003dbb565b509250929050565b60008262003e2e5750600162002f31565b8162003e3d5750600062002f31565b816001811462003e56576002811462003e615762003e81565b600191505062002f31565b60ff84111562003e755762003e7562003d16565b50506001821b62002f31565b5060208310610133831016604e8410600b841016171562003ea6575081810a62002f31565b62003eb2838362003db6565b807fffffffffffffffffffffffffffffffffffffffffffffffffffffffffffffffff0482111562003ee75762003ee762003d16565b029392505050565b600062003089838362003e1d565b60008262003f34577f4e487b7100000000000000000000000000000000000000000000000000000000600052601260045260246000fd5b500490565b600060033d111562003f535760046000803e5060005160e01c5b90565b7f4e487b7100000000000000000000000000000000000000000000000000000000600052604160045260246000fd5b7fffffffffffffffffffffffffffffffffffffffffffffffffffffffffffffffe0601f830116810181811067ffffffffffffffff8211171562003fcc5762003fcc62003f56565b6040525050565b600060443d101562003fe25790565b6040517ffffffffffffffffffffffffffffffffffffffffffffffffffffffffffffffffc803d016004833e81513d67ffffffffffffffff81602484011181841117156200403157505050505090565b82850191508151818111156200404a5750505050505090565b843d8701016020828501011115620040655750505050505090565b620040766020828601018762003f85565b509095945050505050565b8082018082111562002f315762002f3162003d16565b600060208284031215620040aa57600080fd5b5051919050565b60008251620040c581846020870162003b45565b9190910192915050565b600060208284031215620040e257600080fd5b815167ffffffffffffffff80821115620040fb57600080fd5b818401915084601f8301126200411057600080fd5b81518181111562004125576200412562003f56565b60405191506200415e60207fffffffffffffffffffffffffffffffffffffffffffffffffffffffffffffffe0601f840116018362003f85565b8082528560208285010111156200417457600080fd5b6200418781602084016020860162003b45565b50949350505050565b7f4e487b7100000000000000000000000000000000000000000000000000000000600052603260045260246000fd5b600060208284031215620041d257600080fd5b815162003089816200396f565b808202811582820484141762002f315762002f3162003d1656fe60e06040523480156200001157600080fd5b506040518060400160405280600981526020016804d6f636b45524332360bc1b81525060405180604001604052806005815260200164045524332360dc1b8152506012826000908162000065919062000236565b50600162000074838262000236565b5060ff81166080524660a0526200008a620000a3565b60c052506200009d91503390506200013f565b62000380565b60007f8b73c3c69bb8fe3d512ecc4cf759cc79239f7b179b0ffacaa9a75d522b39400f6000604051620000d7919062000302565b6040805191829003822060208301939093528101919091527fc89efdaa54c0f20c7adf612882df0950f5a951637e0307cdcb4c672f298b8bc660608201524660808201523060a082015260c00160405160208183030381529060405280519060200120905090565b600680546001600160a01b038381166001600160a01b0319831681179093556040519116919082907f8be0079c531659141344cd1fd0a4f28419497f9722a3daafe3b4186f6b6457e090600090a35050565b634e487b7160e01b600052604160045260246000fd5b600181811c90821680620001bc57607f821691505b602082108103620001dd57634e487b7160e01b600052602260045260246000fd5b50919050565b601f8211156200023157600081815260208120601f850160051c810160208610156200020c5750805b601f850160051c820191505b818110156200022d5782815560010162000218565b5050505b505050565b81516001600160401b0381111562000252576200025262000191565b6200026a81620002638454620001a7565b84620001e3565b602080601f831160018114620002a25760008415620002895750858301515b600019600386901b1c1916600185901b1785556200022d565b600085815260208120601f198616915b82811015620002d357888601518255948401946001909101908401620002b2565b5085821015620002f25787850151600019600388901b60f8161c191681555b5050505050600190811b01905550565b60008083546200031281620001a7565b600182811680156200032d5760018114620003435762000374565b60ff198416875282151583028701945062000374565b8760005260208060002060005b858110156200036b5781548a82015290840190820162000350565b50505082870194505b50929695505050505050565b60805160a05160c051611447620003b0600039600061062b015260006105f6015260006101f701526114476000f3fe608060405234801561001057600080fd5b50600436106101825760003560e01c806383aedf9c116100d8578063a9059cbb1161008c578063d505accf11610066578063d505accf14610355578063dd62ed3e14610368578063f2fde38b1461039357600080fd5b8063a9059cbb1461031c578063b84c82461461032f578063c47f00271461034257600080fd5b80638da5cb5b116100bd5780638da5cb5b146102e357806395d89b41146103015780639dc29fac1461030957600080fd5b806383aedf9c146102c85780638623ec7b146102d057600080fd5b80633644e5151161013a57806370a082311161011457806370a0823114610280578063715018a6146102a05780637ecebe00146102a857600080fd5b80633644e5151461022b57806340c10f19146102335780635b7121f81461024857600080fd5b806318160ddd1161016b57806318160ddd146101c857806323b872dd146101df578063313ce567146101f257600080fd5b806306fdde0314610187578063095ea7b3146101a5575b600080fd5b61018f6103a6565b60405161019c9190610ec5565b60405180910390f35b6101b86101b3366004610f55565b610434565b604051901515815260200161019c565b6101d160025481565b60405190815260200161019c565b6101b86101ed366004610f7f565b6104ae565b6102197f000000000000000000000000000000000000000000000000000000000000000081565b60405160ff909116815260200161019c565b6101d16105f2565b610246610241366004610f55565b61064d565b005b61025b610256366004610fbb565b6106d7565b60405173ffffffffffffffffffffffffffffffffffffffff909116815260200161019c565b6101d161028e366004610fd4565b60036020526000908152604090205481565b61024661071e565b6101d16102b6366004610fd4565b60056020526000908152604090205481565b6101d1610732565b61025b6102de366004610fbb565b610743565b60065473ffffffffffffffffffffffffffffffffffffffff1661025b565b61018f61077a565b610246610317366004610f55565b610787565b6101b861032a366004610f55565b61079d565b61024661033d366004610ff6565b610822565b610246610350366004610ff6565b61083c565b610246610363366004611068565b610851565b6101d16103763660046110db565b600460209081526000928352604080842090915290825290205481565b6102466103a1366004610fd4565b610b75565b600080546103b39061110e565b80601f01602080910402602001604051908101604052809291908181526020018280546103df9061110e565b801561042c5780601f106104015761010080835404028352916020019161042c565b820191906000526020600020905b81548152906001019060200180831161040f57829003601f168201915b505050505081565b33600081815260046020908152604080832073ffffffffffffffffffffffffffffffffffffffff8716808552925280832085905551919290917f8c5be1e5ebec7d5bd14f71427d1e84f3dd0314c0f7b2291e5b200ac8c7c3b9259061049c9086815260200190565b60405180910390a35060015b92915050565b73ffffffffffffffffffffffffffffffffffffffff831660009081526004602090815260408083203384529091528120547fffffffffffffffffffffffffffffffffffffffffffffffffffffffffffffffff8114610542576105108382611190565b73ffffffffffffffffffffffffffffffffffffffff861660009081526004602090815260408083203384529091529020555b73ffffffffffffffffffffffffffffffffffffffff851660009081526003602052604081208054859290610577908490611190565b909155505073ffffffffffffffffffffffffffffffffffffffff808516600081815260036020526040908190208054870190555190918716907fddf252ad1be2c89b69c2b068fc378daa952ba7f163c4a11628f55a4df523b3ef906105df9087815260200190565b60405180910390a3506001949350505050565b60007f0000000000000000000000000000000000000000000000000000000000000000461461062857610623610c2c565b905090565b507f000000000000000000000000000000000000000000000000000000000000000090565b610655610cc6565b61065f8282610d47565b50600780546001810182556000919091527fa66cc928b5edb82af9bd49922954155ab7b0942694bea4ce44661d9a8736c6880180547fffffffffffffffffffffffff00000000000000000000000000000000000000001673ffffffffffffffffffffffffffffffffffffffff92909216919091179055565b60006106e1610cc6565b600782815481106106f4576106f46111a3565b60009182526020909120015473ffffffffffffffffffffffffffffffffffffffff1690505b919050565b610726610cc6565b6107306000610dc0565b565b600061073c610cc6565b5060075490565b6007818154811061075357600080fd5b60009182526020909120015473ffffffffffffffffffffffffffffffffffffffff16905081565b600180546103b39061110e565b61078f610cc6565b6107998282610e37565b5050565b336000908152600360205260408120805483919083906107be908490611190565b909155505073ffffffffffffffffffffffffffffffffffffffff8316600081815260036020526040908190208054850190555133907fddf252ad1be2c89b69c2b068fc378daa952ba7f163c4a11628f55a4df523b3ef9061049c9086815260200190565b61082a610cc6565b600161083782848361124f565b505050565b610844610cc6565b600061083782848361124f565b428410156108c0576040517f08c379a000000000000000000000000000000000000000000000000000000000815260206004820152601760248201527f5045524d49545f444541444c494e455f4558504952454400000000000000000060448201526064015b60405180910390fd5b600060016108cc6105f2565b73ffffffffffffffffffffffffffffffffffffffff8a811660008181526005602090815260409182902080546001810190915582517f6e71edae12b1b97f4d1f60370fef10105fa2faae0126114a169c64845d6126c98184015280840194909452938d166060840152608083018c905260a083019390935260c08083018b90528151808403909101815260e0830190915280519201919091207f190100000000000000000000000000000000000000000000000000000000000061010083015261010282019290925261012281019190915261014201604080517fffffffffffffffffffffffffffffffffffffffffffffffffffffffffffffffe08184030181528282528051602091820120600084529083018083525260ff871690820152606081018590526080810184905260a0016020604051602081039080840390855afa158015610a1e573d6000803e3d6000fd5b50506040517fffffffffffffffffffffffffffffffffffffffffffffffffffffffffffffffe0015191505073ffffffffffffffffffffffffffffffffffffffff811615801590610a9957508773ffffffffffffffffffffffffffffffffffffffff168173ffffffffffffffffffffffffffffffffffffffff16145b610aff576040517f08c379a000000000000000000000000000000000000000000000000000000000815260206004820152600e60248201527f494e56414c49445f5349474e455200000000000000000000000000000000000060448201526064016108b7565b73ffffffffffffffffffffffffffffffffffffffff90811660009081526004602090815260408083208a8516808552908352928190208990555188815291928a16917f8c5be1e5ebec7d5bd14f71427d1e84f3dd0314c0f7b2291e5b200ac8c7c3b925910160405180910390a350505050505050565b610b7d610cc6565b73ffffffffffffffffffffffffffffffffffffffff8116610c20576040517f08c379a000000000000000000000000000000000000000000000000000000000815260206004820152602660248201527f4f776e61626c653a206e6577206f776e657220697320746865207a65726f206160448201527f646472657373000000000000000000000000000000000000000000000000000060648201526084016108b7565b610c2981610dc0565b50565b60007f8b73c3c69bb8fe3d512ecc4cf759cc79239f7b179b0ffacaa9a75d522b39400f6000604051610c5e919061136a565b6040805191829003822060208301939093528101919091527fc89efdaa54c0f20c7adf612882df0950f5a951637e0307cdcb4c672f298b8bc660608201524660808201523060a082015260c00160405160208183030381529060405280519060200120905090565b60065473ffffffffffffffffffffffffffffffffffffffff163314610730576040517f08c379a000000000000000000000000000000000000000000000000000000000815260206004820181905260248201527f4f776e61626c653a2063616c6c6572206973206e6f7420746865206f776e657260448201526064016108b7565b8060026000828254610d5991906113fe565b909155505073ffffffffffffffffffffffffffffffffffffffff82166000818152600360209081526040808320805486019055518481527fddf252ad1be2c89b69c2b068fc378daa952ba7f163c4a11628f55a4df523b3ef91015b60405180910390a35050565b6006805473ffffffffffffffffffffffffffffffffffffffff8381167fffffffffffffffffffffffff0000000000000000000000000000000000000000831681179093556040519116919082907f8be0079c531659141344cd1fd0a4f28419497f9722a3daafe3b4186f6b6457e090600090a35050565b73ffffffffffffffffffffffffffffffffffffffff821660009081526003602052604081208054839290610e6c908490611190565b909155505060028054829003905560405181815260009073ffffffffffffffffffffffffffffffffffffffff8416907fddf252ad1be2c89b69c2b068fc378daa952ba7f163c4a11628f55a4df523b3ef90602001610db4565b600060208083528351808285015260005b81811015610ef257858101830151858201604001528201610ed6565b5060006040828601015260407fffffffffffffffffffffffffffffffffffffffffffffffffffffffffffffffe0601f8301168501019250505092915050565b803573ffffffffffffffffffffffffffffffffffffffff8116811461071957600080fd5b60008060408385031215610f6857600080fd5b610f7183610f31565b946020939093013593505050565b600080600060608486031215610f9457600080fd5b610f9d84610f31565b9250610fab60208501610f31565b9150604084013590509250925092565b600060208284031215610fcd57600080fd5b5035919050565b600060208284031215610fe657600080fd5b610fef82610f31565b9392505050565b6000806020838503121561100957600080fd5b823567ffffffffffffffff8082111561102157600080fd5b818501915085601f83011261103557600080fd5b81358181111561104457600080fd5b86602082850101111561105657600080fd5b60209290920196919550909350505050565b600080600080600080600060e0888a03121561108357600080fd5b61108c88610f31565b965061109a60208901610f31565b95506040880135945060608801359350608088013560ff811681146110be57600080fd5b9699959850939692959460a0840135945060c09093013592915050565b600080604083850312156110ee57600080fd5b6110f783610f31565b915061110560208401610f31565b90509250929050565b600181811c9082168061112257607f821691505b60208210810361115b577f4e487b7100000000000000000000000000000000000000000000000000000000600052602260045260246000fd5b50919050565b7f4e487b7100000000000000000000000000000000000000000000000000000000600052601160045260246000fd5b818103818111156104a8576104a8611161565b7f4e487b7100000000000000000000000000000000000000000000000000000000600052603260045260246000fd5b7f4e487b7100000000000000000000000000000000000000000000000000000000600052604160045260246000fd5b601f82111561083757600081815260208120601f850160051c810160208610156112285750805b601f850160051c820191505b8181101561124757828155600101611234565b505050505050565b67ffffffffffffffff831115611267576112676111d2565b61127b83611275835461110e565b83611201565b6000601f8411600181146112cd57600085156112975750838201355b7fffffffffffffffffffffffffffffffffffffffffffffffffffffffffffffffff600387901b1c1916600186901b178355611363565b6000838152602090207fffffffffffffffffffffffffffffffffffffffffffffffffffffffffffffffe0861690835b8281101561131c57868501358255602094850194600190920191016112fc565b5086821015611357577fffffffffffffffffffffffffffffffffffffffffffffffffffffffffffffffff60f88860031b161c19848701351681555b505060018560011b0183555b5050505050565b60008083546113788161110e565b6001828116801561139057600181146113c3576113f2565b7fffffffffffffffffffffffffffffffffffffffffffffffffffffffffffffff00841687528215158302870194506113f2565b8760005260208060002060005b858110156113e95781548a8201529084019082016113d0565b50505082870194505b50929695505050505050565b808201808211156104a8576104a861116156fea2646970667358221220975e54c06b5df5ced25f101f1b09f0b294f3bc0f39a395ef180547b8ecfb132e64736f6c63430008150033a2646970667358221220653b42c00ab8104370a04eb658c5a18f5e123ffb0c0fd3f7d1fb56e25112bdc364736f6c63430008150033",
    "linkReferences": {}
  },
  "methodIdentifiers": {
    "activatePolicy(uint256)": "871ae93a",
    "addNewProviderToCommittee(uint256,bytes32,uint256,uint8,uint8,bool)": "2235cbf8",
    "amountAsInsured(uint256,address)": "eb660315",
    "amountAsInsurer(uint256,address)": "76a7e61f",
    "assetWrapper(uint256)": "c534b28f",
    "blocksPerYear()": "a385fb96",
    "collateralWrapper(uint256)": "a3ff45a7",
    "createPolicy(uint256,address,address,uint256)": "1ab145b4",
    "depegEndPolicy(uint256)": "f18e7679",
    "fifoInsured(uint256,uint256)": "f6d22111",
    "fifoInsurer(uint256,uint256)": "5d77fea5",
    "getAllPolicies()": "457e5521",
    "getMetadataForPolicy(uint256)": "e9f863dc",
    "getOracleCommitteeAddress(uint256)": "e4392336",
    "getSystemAddress()": "8dd3848f",
    "owner()": "8da5cb5b",
    "policyAsset(uint256)": "a7d34cf4",
    "policyAssetSymbolBytes32(uint256)": "8812264b",
    "policyBlock(uint256)": "c67e9d5b",
    "policyCollateral(uint256)": "90ad1290",
    "policyCounter()": "d52c1bea",
    "policyId(uint256,address,address)": "28dec72d",
    "policyOracleCommittee(uint256)": "e34a729d",
    "policyPremiumPCT(uint256)": "32c0c19a",
    "recordPriceForCommittee(uint256,address,uint256,uint256)": "63712017",
    "renounceOwnership()": "715018a6",
    "setOracleCommittee(uint256,address)": "f8d0f6ee",
    "subscribeAsInsured(uint256,uint256)": "62963dfa",
    "subscribeAsInsurer(uint256,uint256)": "92edb514",
    "subscribeMinimum()": "860fa565",
    "systemAddress()": "d3e848f1",
    "transferOwnership(address)": "f2fde38b",
    "withdrawAsInsured(uint256,uint256)": "a443eba1",
    "withdrawAsInsurer(uint256,uint256)": "a487271f"
  },
  "id": 48
}