{
    "abi": [
        {
            "anonymous": false,
            "inputs": [
                {
                    "indexed": true,
                    "internalType": "address",
                    "name": "owner",
                    "type": "address"
                },
                {
                    "indexed": true,
                    "internalType": "address",
                    "name": "spender",
                    "type": "address"
                },
                {
                    "indexed": false,
                    "internalType": "uint256",
                    "name": "amount",
                    "type": "uint256"
                }
            ],
            "name": "Approval",
            "type": "event"
        },
        {
            "anonymous": false,
            "inputs": [
                {
                    "indexed": true,
                    "internalType": "address",
                    "name": "previousOwner",
                    "type": "address"
                },
                {
                    "indexed": true,
                    "internalType": "address",
                    "name": "newOwner",
                    "type": "address"
                }
            ],
            "name": "OwnershipTransferred",
            "type": "event"
        },
        {
            "anonymous": false,
            "inputs": [
                {
                    "indexed": true,
                    "internalType": "address",
                    "name": "from",
                    "type": "address"
                },
                {
                    "indexed": true,
                    "internalType": "address",
                    "name": "to",
                    "type": "address"
                },
                {
                    "indexed": false,
                    "internalType": "uint256",
                    "name": "amount",
                    "type": "uint256"
                }
            ],
            "name": "Transfer",
            "type": "event"
        },
        {
            "inputs": [],
            "name": "DOMAIN_SEPARATOR",
            "outputs": [
                {
                    "internalType": "bytes32",
                    "name": "",
                    "type": "bytes32"
                }
            ],
            "stateMutability": "view",
            "type": "function"
        },
        {
            "inputs": [
                {
                    "internalType": "address",
                    "name": "",
                    "type": "address"
                },
                {
                    "internalType": "address",
                    "name": "",
                    "type": "address"
                }
            ],
            "name": "allowance",
            "outputs": [
                {
                    "internalType": "uint256",
                    "name": "",
                    "type": "uint256"
                }
            ],
            "stateMutability": "view",
            "type": "function"
        },
        {
            "inputs": [
                {
                    "internalType": "address",
                    "name": "spender",
                    "type": "address"
                },
                {
                    "internalType": "uint256",
                    "name": "amount",
                    "type": "uint256"
                }
            ],
            "name": "approve",
            "outputs": [
                {
                    "internalType": "bool",
                    "name": "",
                    "type": "bool"
                }
            ],
            "stateMutability": "nonpayable",
            "type": "function"
        },
        {
            "inputs": [
                {
                    "internalType": "address",
                    "name": "",
                    "type": "address"
                }
            ],
            "name": "balanceOf",
            "outputs": [
                {
                    "internalType": "uint256",
                    "name": "",
                    "type": "uint256"
                }
            ],
            "stateMutability": "view",
            "type": "function"
        },
        {
            "inputs": [
                {
                    "internalType": "address",
                    "name": "from",
                    "type": "address"
                },
                {
                    "internalType": "uint256",
                    "name": "amount",
                    "type": "uint256"
                }
            ],
            "name": "burn",
            "outputs": [],
            "stateMutability": "nonpayable",
            "type": "function"
        },
        {
            "inputs": [],
            "name": "decimals",
            "outputs": [
                {
                    "internalType": "uint8",
                    "name": "",
                    "type": "uint8"
                }
            ],
            "stateMutability": "view",
            "type": "function"
        },
        {
            "inputs": [
                {
                    "internalType": "uint256",
                    "name": "index",
                    "type": "uint256"
                }
            ],
            "name": "getMinter",
            "outputs": [
                {
                    "internalType": "address",
                    "name": "",
                    "type": "address"
                }
            ],
            "stateMutability": "view",
            "type": "function"
        },
        {
            "inputs": [],
            "name": "getMintersLength",
            "outputs": [
                {
                    "internalType": "uint256",
                    "name": "",
                    "type": "uint256"
                }
            ],
            "stateMutability": "view",
            "type": "function"
        },
        {
            "inputs": [
                {
                    "internalType": "address",
                    "name": "to",
                    "type": "address"
                },
                {
                    "internalType": "uint256",
                    "name": "amount",
                    "type": "uint256"
                }
            ],
            "name": "mint",
            "outputs": [],
            "stateMutability": "nonpayable",
            "type": "function"
        },
        {
            "inputs": [
                {
                    "internalType": "uint256",
                    "name": "",
                    "type": "uint256"
                }
            ],
            "name": "minters",
            "outputs": [
                {
                    "internalType": "address",
                    "name": "",
                    "type": "address"
                }
            ],
            "stateMutability": "view",
            "type": "function"
        },
        {
            "inputs": [],
            "name": "name",
            "outputs": [
                {
                    "internalType": "string",
                    "name": "",
                    "type": "string"
                }
            ],
            "stateMutability": "view",
            "type": "function"
        },
        {
            "inputs": [
                {
                    "internalType": "address",
                    "name": "",
                    "type": "address"
                }
            ],
            "name": "nonces",
            "outputs": [
                {
                    "internalType": "uint256",
                    "name": "",
                    "type": "uint256"
                }
            ],
            "stateMutability": "view",
            "type": "function"
        },
        {
            "inputs": [],
            "name": "owner",
            "outputs": [
                {
                    "internalType": "address",
                    "name": "",
                    "type": "address"
                }
            ],
            "stateMutability": "view",
            "type": "function"
        },
        {
            "inputs": [
                {
                    "internalType": "address",
                    "name": "owner",
                    "type": "address"
                },
                {
                    "internalType": "address",
                    "name": "spender",
                    "type": "address"
                },
                {
                    "internalType": "uint256",
                    "name": "value",
                    "type": "uint256"
                },
                {
                    "internalType": "uint256",
                    "name": "deadline",
                    "type": "uint256"
                },
                {
                    "internalType": "uint8",
                    "name": "v",
                    "type": "uint8"
                },
                {
                    "internalType": "bytes32",
                    "name": "r",
                    "type": "bytes32"
                },
                {
                    "internalType": "bytes32",
                    "name": "s",
                    "type": "bytes32"
                }
            ],
            "name": "permit",
            "outputs": [],
            "stateMutability": "nonpayable",
            "type": "function"
        },
        {
            "inputs": [],
            "name": "renounceOwnership",
            "outputs": [],
            "stateMutability": "nonpayable",
            "type": "function"
        },
        {
            "inputs": [
                {
                    "internalType": "string",
                    "name": "_name",
                    "type": "string"
                }
            ],
            "name": "setName",
            "outputs": [],
            "stateMutability": "nonpayable",
            "type": "function"
        },
        {
            "inputs": [
                {
                    "internalType": "string",
                    "name": "_symbol",
                    "type": "string"
                }
            ],
            "name": "setSymbol",
            "outputs": [],
            "stateMutability": "nonpayable",
            "type": "function"
        },
        {
            "inputs": [],
            "name": "symbol",
            "outputs": [
                {
                    "internalType": "string",
                    "name": "",
                    "type": "string"
                }
            ],
            "stateMutability": "view",
            "type": "function"
        },
        {
            "inputs": [],
            "name": "totalSupply",
            "outputs": [
                {
                    "internalType": "uint256",
                    "name": "",
                    "type": "uint256"
                }
            ],
            "stateMutability": "view",
            "type": "function"
        },
        {
            "inputs": [
                {
                    "internalType": "address",
                    "name": "to",
                    "type": "address"
                },
                {
                    "internalType": "uint256",
                    "name": "amount",
                    "type": "uint256"
                }
            ],
            "name": "transfer",
            "outputs": [
                {
                    "internalType": "bool",
                    "name": "",
                    "type": "bool"
                }
            ],
            "stateMutability": "nonpayable",
            "type": "function"
        },
        {
            "inputs": [
                {
                    "internalType": "address",
                    "name": "from",
                    "type": "address"
                },
                {
                    "internalType": "address",
                    "name": "to",
                    "type": "address"
                },
                {
                    "internalType": "uint256",
                    "name": "amount",
                    "type": "uint256"
                }
            ],
            "name": "transferFrom",
            "outputs": [
                {
                    "internalType": "bool",
                    "name": "",
                    "type": "bool"
                }
            ],
            "stateMutability": "nonpayable",
            "type": "function"
        },
        {
            "inputs": [
                {
                    "internalType": "address",
                    "name": "newOwner",
                    "type": "address"
                }
            ],
            "name": "transferOwnership",
            "outputs": [],
            "stateMutability": "nonpayable",
            "type": "function"
        }
    ],
    "bytecode": {
        "object": "0x60e06040523480156200001157600080fd5b506040518060400160405280600981526020016804d6f636b45524332360bc1b81525060405180604001604052806005815260200164045524332360dc1b8152506012826000908162000065919062000236565b50600162000074838262000236565b5060ff81166080524660a0526200008a620000a3565b60c052506200009d91503390506200013f565b62000380565b60007f8b73c3c69bb8fe3d512ecc4cf759cc79239f7b179b0ffacaa9a75d522b39400f6000604051620000d7919062000302565b6040805191829003822060208301939093528101919091527fc89efdaa54c0f20c7adf612882df0950f5a951637e0307cdcb4c672f298b8bc660608201524660808201523060a082015260c00160405160208183030381529060405280519060200120905090565b600680546001600160a01b038381166001600160a01b0319831681179093556040519116919082907f8be0079c531659141344cd1fd0a4f28419497f9722a3daafe3b4186f6b6457e090600090a35050565b634e487b7160e01b600052604160045260246000fd5b600181811c90821680620001bc57607f821691505b602082108103620001dd57634e487b7160e01b600052602260045260246000fd5b50919050565b601f8211156200023157600081815260208120601f850160051c810160208610156200020c5750805b601f850160051c820191505b818110156200022d5782815560010162000218565b5050505b505050565b81516001600160401b0381111562000252576200025262000191565b6200026a81620002638454620001a7565b84620001e3565b602080601f831160018114620002a25760008415620002895750858301515b600019600386901b1c1916600185901b1785556200022d565b600085815260208120601f198616915b82811015620002d357888601518255948401946001909101908401620002b2565b5085821015620002f25787850151600019600388901b60f8161c191681555b5050505050600190811b01905550565b60008083546200031281620001a7565b600182811680156200032d5760018114620003435762000374565b60ff198416875282151583028701945062000374565b8760005260208060002060005b858110156200036b5781548a82015290840190820162000350565b50505082870194505b50929695505050505050565b60805160a05160c051611447620003b0600039600061062b015260006105f6015260006101f701526114476000f3fe608060405234801561001057600080fd5b50600436106101825760003560e01c806383aedf9c116100d8578063a9059cbb1161008c578063d505accf11610066578063d505accf14610355578063dd62ed3e14610368578063f2fde38b1461039357600080fd5b8063a9059cbb1461031c578063b84c82461461032f578063c47f00271461034257600080fd5b80638da5cb5b116100bd5780638da5cb5b146102e357806395d89b41146103015780639dc29fac1461030957600080fd5b806383aedf9c146102c85780638623ec7b146102d057600080fd5b80633644e5151161013a57806370a082311161011457806370a0823114610280578063715018a6146102a05780637ecebe00146102a857600080fd5b80633644e5151461022b57806340c10f19146102335780635b7121f81461024857600080fd5b806318160ddd1161016b57806318160ddd146101c857806323b872dd146101df578063313ce567146101f257600080fd5b806306fdde0314610187578063095ea7b3146101a5575b600080fd5b61018f6103a6565b60405161019c9190610ec5565b60405180910390f35b6101b86101b3366004610f55565b610434565b604051901515815260200161019c565b6101d160025481565b60405190815260200161019c565b6101b86101ed366004610f7f565b6104ae565b6102197f000000000000000000000000000000000000000000000000000000000000000081565b60405160ff909116815260200161019c565b6101d16105f2565b610246610241366004610f55565b61064d565b005b61025b610256366004610fbb565b6106d7565b60405173ffffffffffffffffffffffffffffffffffffffff909116815260200161019c565b6101d161028e366004610fd4565b60036020526000908152604090205481565b61024661071e565b6101d16102b6366004610fd4565b60056020526000908152604090205481565b6101d1610732565b61025b6102de366004610fbb565b610743565b60065473ffffffffffffffffffffffffffffffffffffffff1661025b565b61018f61077a565b610246610317366004610f55565b610787565b6101b861032a366004610f55565b61079d565b61024661033d366004610ff6565b610822565b610246610350366004610ff6565b61083c565b610246610363366004611068565b610851565b6101d16103763660046110db565b600460209081526000928352604080842090915290825290205481565b6102466103a1366004610fd4565b610b75565b600080546103b39061110e565b80601f01602080910402602001604051908101604052809291908181526020018280546103df9061110e565b801561042c5780601f106104015761010080835404028352916020019161042c565b820191906000526020600020905b81548152906001019060200180831161040f57829003601f168201915b505050505081565b33600081815260046020908152604080832073ffffffffffffffffffffffffffffffffffffffff8716808552925280832085905551919290917f8c5be1e5ebec7d5bd14f71427d1e84f3dd0314c0f7b2291e5b200ac8c7c3b9259061049c9086815260200190565b60405180910390a35060015b92915050565b73ffffffffffffffffffffffffffffffffffffffff831660009081526004602090815260408083203384529091528120547fffffffffffffffffffffffffffffffffffffffffffffffffffffffffffffffff8114610542576105108382611190565b73ffffffffffffffffffffffffffffffffffffffff861660009081526004602090815260408083203384529091529020555b73ffffffffffffffffffffffffffffffffffffffff851660009081526003602052604081208054859290610577908490611190565b909155505073ffffffffffffffffffffffffffffffffffffffff808516600081815260036020526040908190208054870190555190918716907fddf252ad1be2c89b69c2b068fc378daa952ba7f163c4a11628f55a4df523b3ef906105df9087815260200190565b60405180910390a3506001949350505050565b60007f0000000000000000000000000000000000000000000000000000000000000000461461062857610623610c2c565b905090565b507f000000000000000000000000000000000000000000000000000000000000000090565b610655610cc6565b61065f8282610d47565b50600780546001810182556000919091527fa66cc928b5edb82af9bd49922954155ab7b0942694bea4ce44661d9a8736c6880180547fffffffffffffffffffffffff00000000000000000000000000000000000000001673ffffffffffffffffffffffffffffffffffffffff92909216919091179055565b60006106e1610cc6565b600782815481106106f4576106f46111a3565b60009182526020909120015473ffffffffffffffffffffffffffffffffffffffff1690505b919050565b610726610cc6565b6107306000610dc0565b565b600061073c610cc6565b5060075490565b6007818154811061075357600080fd5b60009182526020909120015473ffffffffffffffffffffffffffffffffffffffff16905081565b600180546103b39061110e565b61078f610cc6565b6107998282610e37565b5050565b336000908152600360205260408120805483919083906107be908490611190565b909155505073ffffffffffffffffffffffffffffffffffffffff8316600081815260036020526040908190208054850190555133907fddf252ad1be2c89b69c2b068fc378daa952ba7f163c4a11628f55a4df523b3ef9061049c9086815260200190565b61082a610cc6565b600161083782848361124f565b505050565b610844610cc6565b600061083782848361124f565b428410156108c0576040517f08c379a000000000000000000000000000000000000000000000000000000000815260206004820152601760248201527f5045524d49545f444541444c494e455f4558504952454400000000000000000060448201526064015b60405180910390fd5b600060016108cc6105f2565b73ffffffffffffffffffffffffffffffffffffffff8a811660008181526005602090815260409182902080546001810190915582517f6e71edae12b1b97f4d1f60370fef10105fa2faae0126114a169c64845d6126c98184015280840194909452938d166060840152608083018c905260a083019390935260c08083018b90528151808403909101815260e0830190915280519201919091207f190100000000000000000000000000000000000000000000000000000000000061010083015261010282019290925261012281019190915261014201604080517fffffffffffffffffffffffffffffffffffffffffffffffffffffffffffffffe08184030181528282528051602091820120600084529083018083525260ff871690820152606081018590526080810184905260a0016020604051602081039080840390855afa158015610a1e573d6000803e3d6000fd5b50506040517fffffffffffffffffffffffffffffffffffffffffffffffffffffffffffffffe0015191505073ffffffffffffffffffffffffffffffffffffffff811615801590610a9957508773ffffffffffffffffffffffffffffffffffffffff168173ffffffffffffffffffffffffffffffffffffffff16145b610aff576040517f08c379a000000000000000000000000000000000000000000000000000000000815260206004820152600e60248201527f494e56414c49445f5349474e455200000000000000000000000000000000000060448201526064016108b7565b73ffffffffffffffffffffffffffffffffffffffff90811660009081526004602090815260408083208a8516808552908352928190208990555188815291928a16917f8c5be1e5ebec7d5bd14f71427d1e84f3dd0314c0f7b2291e5b200ac8c7c3b925910160405180910390a350505050505050565b610b7d610cc6565b73ffffffffffffffffffffffffffffffffffffffff8116610c20576040517f08c379a000000000000000000000000000000000000000000000000000000000815260206004820152602660248201527f4f776e61626c653a206e6577206f776e657220697320746865207a65726f206160448201527f646472657373000000000000000000000000000000000000000000000000000060648201526084016108b7565b610c2981610dc0565b50565b60007f8b73c3c69bb8fe3d512ecc4cf759cc79239f7b179b0ffacaa9a75d522b39400f6000604051610c5e919061136a565b6040805191829003822060208301939093528101919091527fc89efdaa54c0f20c7adf612882df0950f5a951637e0307cdcb4c672f298b8bc660608201524660808201523060a082015260c00160405160208183030381529060405280519060200120905090565b60065473ffffffffffffffffffffffffffffffffffffffff163314610730576040517f08c379a000000000000000000000000000000000000000000000000000000000815260206004820181905260248201527f4f776e61626c653a2063616c6c6572206973206e6f7420746865206f776e657260448201526064016108b7565b8060026000828254610d5991906113fe565b909155505073ffffffffffffffffffffffffffffffffffffffff82166000818152600360209081526040808320805486019055518481527fddf252ad1be2c89b69c2b068fc378daa952ba7f163c4a11628f55a4df523b3ef91015b60405180910390a35050565b6006805473ffffffffffffffffffffffffffffffffffffffff8381167fffffffffffffffffffffffff0000000000000000000000000000000000000000831681179093556040519116919082907f8be0079c531659141344cd1fd0a4f28419497f9722a3daafe3b4186f6b6457e090600090a35050565b73ffffffffffffffffffffffffffffffffffffffff821660009081526003602052604081208054839290610e6c908490611190565b909155505060028054829003905560405181815260009073ffffffffffffffffffffffffffffffffffffffff8416907fddf252ad1be2c89b69c2b068fc378daa952ba7f163c4a11628f55a4df523b3ef90602001610db4565b600060208083528351808285015260005b81811015610ef257858101830151858201604001528201610ed6565b5060006040828601015260407fffffffffffffffffffffffffffffffffffffffffffffffffffffffffffffffe0601f8301168501019250505092915050565b803573ffffffffffffffffffffffffffffffffffffffff8116811461071957600080fd5b60008060408385031215610f6857600080fd5b610f7183610f31565b946020939093013593505050565b600080600060608486031215610f9457600080fd5b610f9d84610f31565b9250610fab60208501610f31565b9150604084013590509250925092565b600060208284031215610fcd57600080fd5b5035919050565b600060208284031215610fe657600080fd5b610fef82610f31565b9392505050565b6000806020838503121561100957600080fd5b823567ffffffffffffffff8082111561102157600080fd5b818501915085601f83011261103557600080fd5b81358181111561104457600080fd5b86602082850101111561105657600080fd5b60209290920196919550909350505050565b600080600080600080600060e0888a03121561108357600080fd5b61108c88610f31565b965061109a60208901610f31565b95506040880135945060608801359350608088013560ff811681146110be57600080fd5b9699959850939692959460a0840135945060c09093013592915050565b600080604083850312156110ee57600080fd5b6110f783610f31565b915061110560208401610f31565b90509250929050565b600181811c9082168061112257607f821691505b60208210810361115b577f4e487b7100000000000000000000000000000000000000000000000000000000600052602260045260246000fd5b50919050565b7f4e487b7100000000000000000000000000000000000000000000000000000000600052601160045260246000fd5b818103818111156104a8576104a8611161565b7f4e487b7100000000000000000000000000000000000000000000000000000000600052603260045260246000fd5b7f4e487b7100000000000000000000000000000000000000000000000000000000600052604160045260246000fd5b601f82111561083757600081815260208120601f850160051c810160208610156112285750805b601f850160051c820191505b8181101561124757828155600101611234565b505050505050565b67ffffffffffffffff831115611267576112676111d2565b61127b83611275835461110e565b83611201565b6000601f8411600181146112cd57600085156112975750838201355b7fffffffffffffffffffffffffffffffffffffffffffffffffffffffffffffffff600387901b1c1916600186901b178355611363565b6000838152602090207fffffffffffffffffffffffffffffffffffffffffffffffffffffffffffffffe0861690835b8281101561131c57868501358255602094850194600190920191016112fc565b5086821015611357577fffffffffffffffffffffffffffffffffffffffffffffffffffffffffffffffff60f88860031b161c19848701351681555b505060018560011b0183555b5050505050565b60008083546113788161110e565b6001828116801561139057600181146113c3576113f2565b7fffffffffffffffffffffffffffffffffffffffffffffffffffffffffffffff00841687528215158302870194506113f2565b8760005260208060002060005b858110156113e95781548a8201529084019082016113d0565b50505082870194505b50929695505050505050565b808201808211156104a8576104a861116156fea2646970667358221220975e54c06b5df5ced25f101f1b09f0b294f3bc0f39a395ef180547b8ecfb132e64736f6c63430008150033",
        "linkReferences": {}
    },
    "methodIdentifiers": {
        "DOMAIN_SEPARATOR()": "3644e515",
        "allowance(address,address)": "dd62ed3e",
        "approve(address,uint256)": "095ea7b3",
        "balanceOf(address)": "70a08231",
        "burn(address,uint256)": "9dc29fac",
        "decimals()": "313ce567",
        "getMinter(uint256)": "5b7121f8",
        "getMintersLength()": "83aedf9c",
        "mint(address,uint256)": "40c10f19",
        "minters(uint256)": "8623ec7b",
        "name()": "06fdde03",
        "nonces(address)": "7ecebe00",
        "owner()": "8da5cb5b",
        "permit(address,address,uint256,uint256,uint8,bytes32,bytes32)": "d505accf",
        "renounceOwnership()": "715018a6",
        "setName(string)": "c47f0027",
        "setSymbol(string)": "b84c8246",
        "symbol()": "95d89b41",
        "totalSupply()": "18160ddd",
        "transfer(address,uint256)": "a9059cbb",
        "transferFrom(address,address,uint256)": "23b872dd",
        "transferOwnership(address)": "f2fde38b"
    },
    "id": 49
}